{
  "_format": "hh-sol-artifact-1",
  "contractName": "Auction",
  "sourceName": "src/contracts/Auction.sol",
  "abi": [
    {
      "inputs": [
        {
          "internalType": "uint256",
          "name": "_royaltyFee",
          "type": "uint256"
        }
      ],
      "stateMutability": "nonpayable",
      "type": "constructor"
    },
    {
      "anonymous": false,
      "inputs": [
        {
          "indexed": true,
          "internalType": "uint256",
          "name": "domain",
          "type": "uint256"
        },
        {
          "indexed": false,
          "internalType": "address",
          "name": "seller",
          "type": "address"
        },
        {
          "indexed": false,
          "internalType": "address",
          "name": "owner",
          "type": "address"
        },
        {
          "indexed": false,
          "internalType": "uint256",
          "name": "price",
          "type": "uint256"
        },
        {
          "indexed": false,
          "internalType": "bool",
          "name": "sold",
          "type": "bool"
        }
      ],
      "name": "AuctionItemCreated",
      "type": "event"
    },
    {
      "inputs": [
        {
          "internalType": "uint256",
          "name": "domain",
          "type": "uint256"
        }
      ],
      "name": "buyAuctionedItem",
      "outputs": [],
      "stateMutability": "payable",
      "type": "function"
    },
    {
      "inputs": [
        {
          "internalType": "uint256",
          "name": "domain",
          "type": "uint256"
        },
        {
          "internalType": "uint256",
          "name": "price",
          "type": "uint256"
        }
      ],
      "name": "changePrice",
      "outputs": [],
      "stateMutability": "nonpayable",
      "type": "function"
    },
    {
      "inputs": [
        {
          "internalType": "uint256",
          "name": "domain",
          "type": "uint256"
        },
        {
          "internalType": "uint256",
          "name": "bid",
          "type": "uint256"
        }
      ],
      "name": "claimPrize",
      "outputs": [],
      "stateMutability": "nonpayable",
      "type": "function"
    },
    {
      "inputs": [
        {
          "internalType": "string",
          "name": "name",
          "type": "string"
        },
        {
          "internalType": "string",
          "name": "description",
          "type": "string"
        },
        {
          "internalType": "uint256",
          "name": "price",
          "type": "uint256"
        }
      ],
      "name": "createAuction",
      "outputs": [],
      "stateMutability": "payable",
      "type": "function"
    },
    {
      "inputs": [],
      "name": "getAllAuctions",
      "outputs": [
        {
          "components": [
            {
              "internalType": "string",
              "name": "name",
              "type": "string"
            },
            {
              "internalType": "string",
              "name": "description",
              "type": "string"
            },
            {
              "internalType": "string",
              "name": "image",
              "type": "string"
            },
            {
              "internalType": "uint256",
              "name": "domain",
              "type": "uint256"
            },
            {
              "internalType": "address",
              "name": "seller",
              "type": "address"
            },
            {
              "internalType": "address",
              "name": "owner",
              "type": "address"
            },
            {
              "internalType": "address",
              "name": "winner",
              "type": "address"
            },
            {
              "internalType": "uint256",
              "name": "price",
              "type": "uint256"
            },
            {
              "internalType": "bool",
              "name": "sold",
              "type": "bool"
            },
            {
              "internalType": "bool",
              "name": "live",
              "type": "bool"
            },
            {
              "internalType": "bool",
              "name": "biddable",
              "type": "bool"
            },
            {
              "internalType": "uint256",
              "name": "bids",
              "type": "uint256"
            },
            {
              "internalType": "uint256",
              "name": "duration",
              "type": "uint256"
            }
          ],
          "internalType": "struct Auction.AuctionStruct[]",
          "name": "Auctions",
          "type": "tuple[]"
        }
      ],
      "stateMutability": "view",
      "type": "function"
    },
    {
      "inputs": [
        {
          "internalType": "uint256",
          "name": "domain",
          "type": "uint256"
        }
      ],
      "name": "getAuction",
      "outputs": [
        {
          "components": [
            {
              "internalType": "string",
              "name": "name",
              "type": "string"
            },
            {
              "internalType": "string",
              "name": "description",
              "type": "string"
            },
            {
              "internalType": "string",
              "name": "image",
              "type": "string"
            },
            {
              "internalType": "uint256",
              "name": "domain",
              "type": "uint256"
            },
            {
              "internalType": "address",
              "name": "seller",
              "type": "address"
            },
            {
              "internalType": "address",
              "name": "owner",
              "type": "address"
            },
            {
              "internalType": "address",
              "name": "winner",
              "type": "address"
            },
            {
              "internalType": "uint256",
              "name": "price",
              "type": "uint256"
            },
            {
              "internalType": "bool",
              "name": "sold",
              "type": "bool"
            },
            {
              "internalType": "bool",
              "name": "live",
              "type": "bool"
            },
            {
              "internalType": "bool",
              "name": "biddable",
              "type": "bool"
            },
            {
              "internalType": "uint256",
              "name": "bids",
              "type": "uint256"
            },
            {
              "internalType": "uint256",
              "name": "duration",
              "type": "uint256"
            }
          ],
          "internalType": "struct Auction.AuctionStruct",
          "name": "",
          "type": "tuple"
        }
      ],
      "stateMutability": "view",
      "type": "function"
    },
    {
      "inputs": [
        {
          "internalType": "uint256",
          "name": "domain",
          "type": "uint256"
        }
      ],
      "name": "getBidders",
      "outputs": [
        {
          "components": [
            {
              "internalType": "address",
              "name": "bidder",
              "type": "address"
            },
            {
              "internalType": "uint256",
              "name": "price",
              "type": "uint256"
            },
            {
              "internalType": "uint256",
              "name": "timestamp",
              "type": "uint256"
            },
            {
              "internalType": "bool",
              "name": "refunded",
              "type": "bool"
            },
            {
              "internalType": "bool",
              "name": "won",
              "type": "bool"
            }
          ],
          "internalType": "struct Auction.BidderStruct[]",
          "name": "",
          "type": "tuple[]"
        }
      ],
      "stateMutability": "view",
      "type": "function"
    },
    {
      "inputs": [],
      "name": "getListingPrice",
      "outputs": [
        {
          "internalType": "uint256",
          "name": "",
          "type": "uint256"
        }
      ],
      "stateMutability": "view",
      "type": "function"
    },
    {
      "inputs": [],
      "name": "getLiveAuctions",
      "outputs": [
        {
          "components": [
            {
              "internalType": "string",
              "name": "name",
              "type": "string"
            },
            {
              "internalType": "string",
              "name": "description",
              "type": "string"
            },
            {
              "internalType": "string",
              "name": "image",
              "type": "string"
            },
            {
              "internalType": "uint256",
              "name": "domain",
              "type": "uint256"
            },
            {
              "internalType": "address",
              "name": "seller",
              "type": "address"
            },
            {
              "internalType": "address",
              "name": "owner",
              "type": "address"
            },
            {
              "internalType": "address",
              "name": "winner",
              "type": "address"
            },
            {
              "internalType": "uint256",
              "name": "price",
              "type": "uint256"
            },
            {
              "internalType": "bool",
              "name": "sold",
              "type": "bool"
            },
            {
              "internalType": "bool",
              "name": "live",
              "type": "bool"
            },
            {
              "internalType": "bool",
              "name": "biddable",
              "type": "bool"
            },
            {
              "internalType": "uint256",
              "name": "bids",
              "type": "uint256"
            },
            {
              "internalType": "uint256",
              "name": "duration",
              "type": "uint256"
            }
          ],
          "internalType": "struct Auction.AuctionStruct[]",
          "name": "Auctions",
          "type": "tuple[]"
        }
      ],
      "stateMutability": "view",
      "type": "function"
    },
    {
      "inputs": [],
      "name": "getMyAuctions",
      "outputs": [
        {
          "components": [
            {
              "internalType": "string",
              "name": "name",
              "type": "string"
            },
            {
              "internalType": "string",
              "name": "description",
              "type": "string"
            },
            {
              "internalType": "string",
              "name": "image",
              "type": "string"
            },
            {
              "internalType": "uint256",
              "name": "domain",
              "type": "uint256"
            },
            {
              "internalType": "address",
              "name": "seller",
              "type": "address"
            },
            {
              "internalType": "address",
              "name": "owner",
              "type": "address"
            },
            {
              "internalType": "address",
              "name": "winner",
              "type": "address"
            },
            {
              "internalType": "uint256",
              "name": "price",
              "type": "uint256"
            },
            {
              "internalType": "bool",
              "name": "sold",
              "type": "bool"
            },
            {
              "internalType": "bool",
              "name": "live",
              "type": "bool"
            },
            {
              "internalType": "bool",
              "name": "biddable",
              "type": "bool"
            },
            {
              "internalType": "uint256",
              "name": "bids",
              "type": "uint256"
            },
            {
              "internalType": "uint256",
              "name": "duration",
              "type": "uint256"
            }
          ],
          "internalType": "struct Auction.AuctionStruct[]",
          "name": "Auctions",
          "type": "tuple[]"
        }
      ],
      "stateMutability": "view",
      "type": "function"
    },
    {
      "inputs": [],
      "name": "getSoldAuction",
      "outputs": [
        {
          "components": [
            {
              "internalType": "string",
              "name": "name",
              "type": "string"
            },
            {
              "internalType": "string",
              "name": "description",
              "type": "string"
            },
            {
              "internalType": "string",
              "name": "image",
              "type": "string"
            },
            {
              "internalType": "uint256",
              "name": "domain",
              "type": "uint256"
            },
            {
              "internalType": "address",
              "name": "seller",
              "type": "address"
            },
            {
              "internalType": "address",
              "name": "owner",
              "type": "address"
            },
            {
              "internalType": "address",
              "name": "winner",
              "type": "address"
            },
            {
              "internalType": "uint256",
              "name": "price",
              "type": "uint256"
            },
            {
              "internalType": "bool",
              "name": "sold",
              "type": "bool"
            },
            {
              "internalType": "bool",
              "name": "live",
              "type": "bool"
            },
            {
              "internalType": "bool",
              "name": "biddable",
              "type": "bool"
            },
            {
              "internalType": "uint256",
              "name": "bids",
              "type": "uint256"
            },
            {
              "internalType": "uint256",
              "name": "duration",
              "type": "uint256"
            }
          ],
          "internalType": "struct Auction.AuctionStruct[]",
          "name": "Auctions",
          "type": "tuple[]"
        }
      ],
      "stateMutability": "view",
      "type": "function"
    },
    {
      "inputs": [],
      "name": "getUnsoldAuction",
      "outputs": [
        {
          "components": [
            {
              "internalType": "string",
              "name": "name",
              "type": "string"
            },
            {
              "internalType": "string",
              "name": "description",
              "type": "string"
            },
            {
              "internalType": "string",
              "name": "image",
              "type": "string"
            },
            {
              "internalType": "uint256",
              "name": "domain",
              "type": "uint256"
            },
            {
              "internalType": "address",
              "name": "seller",
              "type": "address"
            },
            {
              "internalType": "address",
              "name": "owner",
              "type": "address"
            },
            {
              "internalType": "address",
              "name": "winner",
              "type": "address"
            },
            {
              "internalType": "uint256",
              "name": "price",
              "type": "uint256"
            },
            {
              "internalType": "bool",
              "name": "sold",
              "type": "bool"
            },
            {
              "internalType": "bool",
              "name": "live",
              "type": "bool"
            },
            {
              "internalType": "bool",
              "name": "biddable",
              "type": "bool"
            },
            {
              "internalType": "uint256",
              "name": "bids",
              "type": "uint256"
            },
            {
              "internalType": "uint256",
              "name": "duration",
              "type": "uint256"
            }
          ],
          "internalType": "struct Auction.AuctionStruct[]",
          "name": "Auctions",
          "type": "tuple[]"
        }
      ],
      "stateMutability": "view",
      "type": "function"
    },
    {
      "inputs": [
        {
          "internalType": "uint256",
          "name": "domain",
          "type": "uint256"
        },
        {
          "internalType": "bool",
          "name": "biddable",
          "type": "bool"
        },
        {
          "internalType": "uint256",
          "name": "sec",
          "type": "uint256"
        },
        {
          "internalType": "uint256",
          "name": "min",
          "type": "uint256"
        },
        {
          "internalType": "uint256",
          "name": "hour",
          "type": "uint256"
        },
        {
          "internalType": "uint256",
          "name": "day",
          "type": "uint256"
        }
      ],
      "name": "offerAuction",
      "outputs": [],
      "stateMutability": "nonpayable",
      "type": "function"
    },
    {
      "inputs": [
        {
          "internalType": "uint256",
          "name": "domain",
          "type": "uint256"
        }
      ],
      "name": "placeBid",
      "outputs": [],
      "stateMutability": "payable",
      "type": "function"
    },
    {
      "inputs": [
        {
          "internalType": "uint256",
          "name": "_price",
          "type": "uint256"
        }
      ],
      "name": "setListingPrice",
      "outputs": [],
      "stateMutability": "nonpayable",
      "type": "function"
    }
  ],
  "bytecode": "0x608060405266470de4df8200006003553480156200001c57600080fd5b5060405162002d1838038062002d188339810160408190526200003f916200005f565b6001600055600280546001600160a01b0319163317905560045562000079565b6000602082840312156200007257600080fd5b5051919050565b612c8f80620000896000396000f3fe6080604052600436106100e85760003560e01c80639e78efd61161008a578063cbd2bdfd11610059578063cbd2bdfd1461024b578063db0bd5c914610260578063ddf2070614610275578063f5a06acf1461028857600080fd5b80639e78efd6146101e1578063a923f18c146101f6578063b3de019c14610216578063bf65a3331461023657600080fd5b806378bd7935116100c657806378bd79351461015f5780637b1541401461018c5780637c726b69146101ae5780639979ef45146101ce57600080fd5b806312e85585146100ed5780631d8df68f146101105780634fa7b50714610132575b600080fd5b3480156100f957600080fd5b506003546040519081526020015b60405180910390f35b34801561011c57600080fd5b5061012561029b565b60405161010791906128a3565b34801561013e57600080fd5b5061015261014d366004612905565b610639565b604051610107919061291e565b34801561016b57600080fd5b5061017f61017a366004612905565b6106eb565b6040516101079190612999565b34801561019857600080fd5b506101ac6101a73660046129b3565b6109b0565b005b3480156101ba57600080fd5b506101ac6101c9366004612905565b610bb4565b6101ac6101dc366004612905565b610be3565b3480156101ed57600080fd5b50610125610e14565b34801561020257600080fd5b506101ac6102113660046129d5565b6111a9565b34801561022257600080fd5b506101ac6102313660046129b3565b61129d565b34801561024257600080fd5b5061012561139d565b34801561025757600080fd5b50610125611744565b34801561026c57600080fd5b50610125611a4e565b6101ac610283366004612acd565b611df9565b6101ac610296366004612905565b6120d8565b606060006102a860015490565b90506000805b8281101561030157600560006102c5836001612b50565b815260208101919091526040016000206008015460ff16156102ef57816102eb81612b68565b9250505b806102f981612b68565b9150506102ae565b508067ffffffffffffffff81111561031b5761031b612a2a565b60405190808252806020026020018201604052801561035457816020015b6103416125d9565b8152602001906001900390816103395790505b5092506000805b838110156106325760056000610372836001612b50565b815260208101919091526040016000206008015460ff1615610620576005600061039d836001612b50565b8152602001908152602001600020604051806101a00160405290816000820180546103c790612b83565b80601f01602080910402602001604051908101604052809291908181526020018280546103f390612b83565b80156104405780601f1061041557610100808354040283529160200191610440565b820191906000526020600020905b81548152906001019060200180831161042357829003601f168201915b5050505050815260200160018201805461045990612b83565b80601f016020809104026020016040519081016040528092919081815260200182805461048590612b83565b80156104d25780601f106104a7576101008083540402835291602001916104d2565b820191906000526020600020905b8154815290600101906020018083116104b557829003601f168201915b505050505081526020016002820180546104eb90612b83565b80601f016020809104026020016040519081016040528092919081815260200182805461051790612b83565b80156105645780601f1061053957610100808354040283529160200191610564565b820191906000526020600020905b81548152906001019060200180831161054757829003601f168201915b50505091835250506003820154602082015260048201546001600160a01b0390811660408301526005830154811660608301526006830154166080820152600782015460a0820152600882015460ff808216151560c08401526101008083048216151560e085015262010000909204161515908201526009820154610120820152600a9091015461014090910152855186908490811061060657610606612bbe565b6020026020010181905250818061061c90612b68565b9250505b8061062a81612b68565b91505061035b565b5050505090565b606060086000838152602001908152602001600020805480602002602001604051908101604052809291908181526020016000905b828210156106e05760008481526020908190206040805160a0810182526004860290920180546001600160a01b03168352600180820154848601526002820154928401929092526003015460ff808216151560608501526101009091041615156080830152908352909201910161066e565b505050509050919050565b6106f36125d9565b60008281526006602052604090205460ff166107565760405162461bcd60e51b815260206004820152601860248201527f41756374696f6e6564204974656d206e6f7420666f756e64000000000000000060448201526064015b60405180910390fd5b6000828152600560205260409081902081516101a0810190925280548290829061077f90612b83565b80601f01602080910402602001604051908101604052809291908181526020018280546107ab90612b83565b80156107f85780601f106107cd576101008083540402835291602001916107f8565b820191906000526020600020905b8154815290600101906020018083116107db57829003601f168201915b5050505050815260200160018201805461081190612b83565b80601f016020809104026020016040519081016040528092919081815260200182805461083d90612b83565b801561088a5780601f1061085f5761010080835404028352916020019161088a565b820191906000526020600020905b81548152906001019060200180831161086d57829003601f168201915b505050505081526020016002820180546108a390612b83565b80601f01602080910402602001604051908101604052809291908181526020018280546108cf90612b83565b801561091c5780601f106108f15761010080835404028352916020019161091c565b820191906000526020600020905b8154815290600101906020018083116108ff57829003601f168201915b50505091835250506003820154602082015260048201546001600160a01b0390811660408301526005830154811660608301526006830154166080820152600782015460a0820152600882015460ff808216151560c08401526101008083048216151560e085015262010000909204161515908201526009820154610120820152600a909101546101409091015292915050565b6000828152600560205260408120600a0154906109cf908080806122dc565b11610a115760405162461bcd60e51b815260206004820152601260248201527141756374696f6e207374696c6c204c69766560701b604482015260640161074d565b6000828152600560205260409020600601546001600160a01b03163314610a735760405162461bcd60e51b81526020600482015260166024820152752cb7ba9030b932903737ba103a3432903bb4b73732b960511b604482015260640161074d565b600082815260086020526040902080546001919083908110610a9757610a97612bbe565b60009182526020808320600492830201600301805461ff00191661010095151595909502949094179093558482526005909252604081206007810154928101546006820180546001600160a01b031916905560088201805461ffff1916600117905560099091018290556001600160a01b031690610b17908080806122dc565b6000858152600560205260408120600a0191909155600454606490610b3c9085612bd4565b610b469190612bf3565b60008681526005602081905260409091200154909150610b78906001600160a01b0316610b738386612c15565b61233e565b610b82828261233e565b60008581526005602081905260409091200180546001600160a01b03191633179055610bad8561239e565b5050505050565b6002546001600160a01b03163314610bde5760405162461bcd60e51b815260040161074d90612c2c565b600355565b600081815260056020526040902060070154341015610c3a5760405162461bcd60e51b8152602060048201526013602482015272125b9cdd59999a58da595b9d08105b5bdd5b9d606a1b604482015260640161074d565b610c486000806000806122dc565b6000828152600560205260409020600a015411610c9f5760405162461bcd60e51b815260206004820152601560248201527441756374696f6e206e6f7420617661696c61626c6560581b604482015260640161074d565b60008181526005602052604090206008015462010000900460ff16610d065760405162461bcd60e51b815260206004820152601860248201527f41756374696f6e206f6e6c7920666f722062696464696e670000000000000000604482015260640161074d565b6040805160a0810182526000918101829052606081018290526080810182905233815234602082015290610d3c908080806122dc565b6040808301918252600084815260086020908152828220805460018181018355918452828420875160049092020180546001600160a01b039092166001600160a01b0319909216919091178155828701519181019190915593516002850155606085015160039094018054608087015115156101000261ff00199615159690961661ffff19909116179490941790935584815260059092528120600901805491610de583612b68565b909155505050600090815260056020526040902034600782015560060180546001600160a01b03191633179055565b60606000610e2160015490565b90506000805b82811015610e795760056000610e3e836001612b50565b815260208101919091526040016000206008015460ff16610e675781610e6381612b68565b9250505b80610e7181612b68565b915050610e27565b508067ffffffffffffffff811115610e9357610e93612a2a565b604051908082528060200260200182016040528015610ecc57816020015b610eb96125d9565b815260200190600190039081610eb15790505b5092506000805b838110156106325760056000610eea836001612b50565b815260208101919091526040016000206008015460ff166111975760056000610f14836001612b50565b8152602001908152602001600020604051806101a0016040529081600082018054610f3e90612b83565b80601f0160208091040260200160405190810160405280929190818152602001828054610f6a90612b83565b8015610fb75780601f10610f8c57610100808354040283529160200191610fb7565b820191906000526020600020905b815481529060010190602001808311610f9a57829003601f168201915b50505050508152602001600182018054610fd090612b83565b80601f0160208091040260200160405190810160405280929190818152602001828054610ffc90612b83565b80156110495780601f1061101e57610100808354040283529160200191611049565b820191906000526020600020905b81548152906001019060200180831161102c57829003601f168201915b5050505050815260200160028201805461106290612b83565b80601f016020809104026020016040519081016040528092919081815260200182805461108e90612b83565b80156110db5780601f106110b0576101008083540402835291602001916110db565b820191906000526020600020905b8154815290600101906020018083116110be57829003601f168201915b50505091835250506003820154602082015260048201546001600160a01b0390811660408301526005830154811660608301526006830154166080820152600782015460a0820152600882015460ff808216151560c08401526101008083048216151560e085015262010000909204161515908201526009820154610120820152600a9091015461014090910152855186908490811061117d5761117d612bbe565b6020026020010181905250818061119390612b68565b9250505b806111a181612b68565b915050610ed3565b600086815260056020819052604090912001546001600160a01b031633146111e35760405162461bcd60e51b815260040161074d90612c2c565b600086815260056020526040902060090154156112425760405162461bcd60e51b815260206004820152601f60248201527f57696e6e65722073686f756c6420636c61696d207072697a6520666972737400604482015260640161074d565b60008681526005602052604081206009810191909155600801805461010062ffffff19909116620100008815150217179055611280848484846122dc565b600096875260056020526040909620600a01959095555050505050565b600082815260056020819052604090912001546001600160a01b031633146112d75760405162461bcd60e51b815260040161074d90612c2c565b6000828152600560205260408120600a0154906112f6908080806122dc565b116113385760405162461bcd60e51b815260206004820152601260248201527141756374696f6e207374696c6c204c69766560701b604482015260640161074d565b600081116113885760405162461bcd60e51b815260206004820152601f60248201527f5072696365206d7573742062652067726561746572207468616e207a65726f00604482015260640161074d565b60009182526005602052604090912060070155565b606060006113aa60015490565b90506000805b8281101561140b5733600560006113c8846001612b50565b81526020810191909152604001600020600501546001600160a01b031614156113f957816113f581612b68565b9250505b8061140381612b68565b9150506113b0565b508067ffffffffffffffff81111561142557611425612a2a565b60405190808252806020026020018201604052801561145e57816020015b61144b6125d9565b8152602001906001900390816114435790505b5092506000805b8381101561063257336005600061147d846001612b50565b81526020810191909152604001600020600501546001600160a01b0316141561173257600560006114af836001612b50565b8152602001908152602001600020604051806101a00160405290816000820180546114d990612b83565b80601f016020809104026020016040519081016040528092919081815260200182805461150590612b83565b80156115525780601f1061152757610100808354040283529160200191611552565b820191906000526020600020905b81548152906001019060200180831161153557829003601f168201915b5050505050815260200160018201805461156b90612b83565b80601f016020809104026020016040519081016040528092919081815260200182805461159790612b83565b80156115e45780601f106115b9576101008083540402835291602001916115e4565b820191906000526020600020905b8154815290600101906020018083116115c757829003601f168201915b505050505081526020016002820180546115fd90612b83565b80601f016020809104026020016040519081016040528092919081815260200182805461162990612b83565b80156116765780601f1061164b57610100808354040283529160200191611676565b820191906000526020600020905b81548152906001019060200180831161165957829003601f168201915b50505091835250506003820154602082015260048201546001600160a01b0390811660408301526005830154811660608301526006830154166080820152600782015460a0820152600882015460ff808216151560c08401526101008083048216151560e085015262010000909204161515908201526009820154610120820152600a9091015461014090910152855186908490811061171857611718612bbe565b6020026020010181905250818061172e90612b68565b9250505b8061173c81612b68565b915050611465565b6060600061175160015490565b90508067ffffffffffffffff81111561176c5761176c612a2a565b6040519080825280602002602001820160405280156117a557816020015b6117926125d9565b81526020019060019003908161178a5790505b50915060005b81811015611a4957600560006117c2836001612b50565b8152602001908152602001600020604051806101a00160405290816000820180546117ec90612b83565b80601f016020809104026020016040519081016040528092919081815260200182805461181890612b83565b80156118655780601f1061183a57610100808354040283529160200191611865565b820191906000526020600020905b81548152906001019060200180831161184857829003601f168201915b5050505050815260200160018201805461187e90612b83565b80601f01602080910402602001604051908101604052809291908181526020018280546118aa90612b83565b80156118f75780601f106118cc576101008083540402835291602001916118f7565b820191906000526020600020905b8154815290600101906020018083116118da57829003601f168201915b5050505050815260200160028201805461191090612b83565b80601f016020809104026020016040519081016040528092919081815260200182805461193c90612b83565b80156119895780601f1061195e57610100808354040283529160200191611989565b820191906000526020600020905b81548152906001019060200180831161196c57829003601f168201915b50505091835250506003820154602082015260048201546001600160a01b0390811660408301526005830154811660608301526006830154166080820152600782015460a0820152600882015460ff808216151560c08401526101008083048216151560e085015262010000909204161515908201526009820154610120820152600a90910154610140909101528351849083908110611a2b57611a2b612bbe565b60200260200101819052508080611a4190612b68565b9150506117ab565b505090565b60606000611a5b60015490565b90506000805b82811015611abe57611a776000806000806122dc565b60056000611a86846001612b50565b8152602001908152602001600020600a01541115611aac5781611aa881612b68565b9250505b80611ab681612b68565b915050611a61565b508067ffffffffffffffff811115611ad857611ad8612a2a565b604051908082528060200260200182016040528015611b1157816020015b611afe6125d9565b815260200190600190039081611af65790505b5092506000805b8381101561063257611b2e6000806000806122dc565b60056000611b3d846001612b50565b8152602001908152602001600020600a01541115611de75760056000611b64836001612b50565b8152602001908152602001600020604051806101a0016040529081600082018054611b8e90612b83565b80601f0160208091040260200160405190810160405280929190818152602001828054611bba90612b83565b8015611c075780601f10611bdc57610100808354040283529160200191611c07565b820191906000526020600020905b815481529060010190602001808311611bea57829003601f168201915b50505050508152602001600182018054611c2090612b83565b80601f0160208091040260200160405190810160405280929190818152602001828054611c4c90612b83565b8015611c995780601f10611c6e57610100808354040283529160200191611c99565b820191906000526020600020905b815481529060010190602001808311611c7c57829003601f168201915b50505050508152602001600282018054611cb290612b83565b80601f0160208091040260200160405190810160405280929190818152602001828054611cde90612b83565b8015611d2b5780601f10611d0057610100808354040283529160200191611d2b565b820191906000526020600020905b815481529060010190602001808311611d0e57829003601f168201915b50505091835250506003820154602082015260048201546001600160a01b0390811660408301526005830154811660608301526006830154166080820152600782015460a0820152600882015460ff808216151560c08401526101008083048216151560e085015262010000909204161515908201526009820154610120820152600a90910154610140909101528551869084908110611dcd57611dcd612bbe565b60200260200101819052508180611de390612b68565b9250505b80611df181612b68565b915050611b18565b611e0161257f565b60008111611e645760405162461bcd60e51b815260206004820152602a60248201527f53616c6573207072696365206d7573742062652067726561746572207468616e60448201526910181032ba3432b9399760b11b606482015260840161074d565b600354341015611ec55760405162461bcd60e51b815260206004820152602660248201527f5072696365206d75737420626520757020746f20746865206c697374696e6720604482015265383934b1b29760d11b606482015260840161074d565b611ed3600180546001019055565b6000611ede60015490565b9050611ee86125d9565b606081018290528481526020810184905260e08101839052611f0d60008080806122dc565b610180820152336080820181905260a08201526000828152600560209081526040909120825180518493611f45928492910190612662565b506020828101518051611f5e9260018501920190612662565b5060408201518051611f7a916002840191602090910190612662565b50606082015160038281019190915560808301516004830180546001600160a01b03199081166001600160a01b039384161790915560a0850151600585018054831691841691909117905560c0850151600680860180549093169184169190911790915560e08501516007850155610100808601516008860180546101208901516101408a015161ffff1990921693151561ff001916939093179215159093029190911762ff000019166201000092151592909202919091179055610160850151600985015561018090940151600a9093019290925560008581526020939093526040909220805460ff19166001179055600254915461207d929091169061233e565b604080513381526000602082018190528183018690526060820152905183917fa693a8f68fe4df789541ddd1b84d32ccaea90adddcc88406b4bbbf6466328d3c919081900360800190a250506120d36001600055565b505050565b6120e061257f565b6000818152600560205260409020600701543410156121375760405162461bcd60e51b8152602060048201526013602482015272125b9cdd59999a58da595b9d08105b5bdd5b9d606a1b604482015260640161074d565b6121456000806000806122dc565b6000828152600560205260409020600a01541161219c5760405162461bcd60e51b815260206004820152601560248201527441756374696f6e206e6f7420617661696c61626c6560581b604482015260640161074d565b60008181526005602052604090206008015462010000900460ff16156122045760405162461bcd60e51b815260206004820152601960248201527f41756374696f6e206f6e6c7920666f7220707572636861736500000000000000604482015260640161074d565b6000818152600560205260408120600481015460088201805461ffff1916600117905560099091018290556001600160a01b031690612245908080806122dc565b6000838152600560205260408120600a019190915560045460649061226a9034612bd4565b6122749190612bf3565b600084815260056020819052604090912001549091506122a1906001600160a01b0316610b738334612c15565b6122ab828261233e565b505060008181526005602081905260409091200180546001600160a01b031916331790556122d96001600055565b50565b60006122eb8262015180612bd4565b6122f784610e10612bd4565b61230286603c612bd4565b61230d886001612bd4565b6123179042612b50565b6123219190612b50565b61232b9190612b50565b6123359190612b50565b95945050505050565b6000826001600160a01b03168260405160006040518083038185875af1925050503d806000811461238b576040519150601f19603f3d011682016040523d82523d6000602084013e612390565b606091505b50509050806120d357600080fd5b60005b6000828152600860205260409020548110156125675760008281526008602052604090208054339190839081106123da576123da612bbe565b60009182526020909120600490910201546001600160a01b0316146124c65760008281526008602052604090208054600191908390811061241d5761241d612bbe565b906000526020600020906004020160030160006101000a81548160ff0219169083151502179055506124c160086000848152602001908152602001600020828154811061246c5761246c612bbe565b600091825260208083206004909202909101548583526008909152604090912080546001600160a01b0390921691849081106124aa576124aa612bbe565b90600052602060002090600402016001015461233e565b612513565b6000828152600860205260409020805460019190839081106124ea576124ea612bbe565b906000526020600020906004020160030160016101000a81548160ff0219169083151502179055505b6125216000806000806122dc565b600083815260086020526040902080548390811061254157612541612bbe565b60009182526020909120600260049092020101558061255f81612b68565b9150506123a1565b5060008181526008602052604081206122d9916126e6565b600260005414156125d25760405162461bcd60e51b815260206004820152601f60248201527f5265656e7472616e637947756172643a207265656e7472616e742063616c6c00604482015260640161074d565b6002600055565b604051806101a001604052806060815260200160608152602001606081526020016000815260200160006001600160a01b0316815260200160006001600160a01b0316815260200160006001600160a01b031681526020016000815260200160001515815260200160001515815260200160001515815260200160008152602001600081525090565b82805461266e90612b83565b90600052602060002090601f01602090048101928261269057600085556126d6565b82601f106126a957805160ff19168380011785556126d6565b828001600101855582156126d6579182015b828111156126d65782518255916020019190600101906126bb565b506126e2929150612707565b5090565b50805460008255600402906000526020600020908101906122d9919061271c565b5b808211156126e25760008155600101612708565b5b808211156126e25780546001600160a01b0319168155600060018201819055600282015560038101805461ffff1916905560040161271d565b6000815180845260005b8181101561277c57602081850181015186830182015201612760565b8181111561278e576000602083870101525b50601f01601f19169290920160200192915050565b60006101a082518185526127b982860182612756565b915050602083015184820360208601526127d38282612756565b915050604083015184820360408601526127ed8282612756565b91505060608301516060850152608083015161281460808601826001600160a01b03169052565b5060a083015161282f60a08601826001600160a01b03169052565b5060c083015161284a60c08601826001600160a01b03169052565b5060e083015160e0850152610100808401516128698287018215159052565b5050610120838101511515908501526101408084015115159085015261016080840151908501526101809283015192909301919091525090565b6000602080830181845280855180835260408601915060408160051b870101925083870160005b828110156128f857603f198886030184526128e68583516127a3565b945092850192908501906001016128ca565b5092979650505050505050565b60006020828403121561291757600080fd5b5035919050565b602080825282518282018190526000919060409081850190868401855b8281101561298c57815180516001600160a01b031685528681015187860152858101518686015260608082015115159086015260809081015115159085015260a0909301929085019060010161293b565b5091979650505050505050565b6020815260006129ac60208301846127a3565b9392505050565b600080604083850312156129c657600080fd5b50508035926020909101359150565b60008060008060008060c087890312156129ee57600080fd5b8635955060208701358015158114612a0557600080fd5b95989597505050506040840135936060810135936080820135935060a0909101359150565b634e487b7160e01b600052604160045260246000fd5b600082601f830112612a5157600080fd5b813567ffffffffffffffff80821115612a6c57612a6c612a2a565b604051601f8301601f19908116603f01168101908282118183101715612a9457612a94612a2a565b81604052838152866020858801011115612aad57600080fd5b836020870160208301376000602085830101528094505050505092915050565b600080600060608486031215612ae257600080fd5b833567ffffffffffffffff80821115612afa57600080fd5b612b0687838801612a40565b94506020860135915080821115612b1c57600080fd5b50612b2986828701612a40565b925050604084013590509250925092565b634e487b7160e01b600052601160045260246000fd5b60008219821115612b6357612b63612b3a565b500190565b6000600019821415612b7c57612b7c612b3a565b5060010190565b600181811c90821680612b9757607f821691505b60208210811415612bb857634e487b7160e01b600052602260045260246000fd5b50919050565b634e487b7160e01b600052603260045260246000fd5b6000816000190483118215151615612bee57612bee612b3a565b500290565b600082612c1057634e487b7160e01b600052601260045260246000fd5b500490565b600082821015612c2757612c27612b3a565b500390565b602080825260139082015272556e617574686f72697a656420656e7469747960681b60408201526060019056fea2646970667358221220f3e40acb8ae3437c14620c0c38ef8cea907f10d7ddfc004f6985da58eea0fd0f64736f6c634300080b0033",
  "linkReferences": {},
  "deployedLinkReferences": {}
}