{"src/contracts/Auction.sol":{"Auction":{"abi":[{"inputs":[{"internalType":"uint256","name":"_royaltyFee","type":"uint256"}],"stateMutability":"nonpayable","type":"constructor"},{"anonymous":false,"inputs":[{"indexed":true,"internalType":"uint256","name":"domain","type":"uint256"},{"indexed":false,"internalType":"address","name":"seller","type":"address"},{"indexed":false,"internalType":"address","name":"owner","type":"address"},{"indexed":false,"internalType":"uint256","name":"price","type":"uint256"},{"indexed":false,"internalType":"bool","name":"sold","type":"bool"}],"name":"AuctionItemCreated","type":"event"},{"inputs":[{"internalType":"uint256","name":"domain","type":"uint256"},{"internalType":"uint256","name":"price","type":"uint256"}],"name":"changePrice","outputs":[],"stateMutability":"nonpayable","type":"function"},{"inputs":[{"internalType":"string","name":"name","type":"string"},{"internalType":"string","name":"description","type":"string"},{"internalType":"uint256","name":"price","type":"uint256"}],"name":"createAuction","outputs":[],"stateMutability":"payable","type":"function"},{"inputs":[{"internalType":"uint256","name":"domain","type":"uint256"}],"name":"finalizeAuction","outputs":[],"stateMutability":"nonpayable","type":"function"},{"inputs":[],"name":"getAllAuctions","outputs":[{"components":[{"internalType":"string","name":"name","type":"string"},{"internalType":"string","name":"description","type":"string"},{"internalType":"uint256","name":"domain","type":"uint256"},{"internalType":"address","name":"seller","type":"address"},{"internalType":"address","name":"owner","type":"address"},{"internalType":"address","name":"winner","type":"address"},{"internalType":"uint256","name":"price","type":"uint256"},{"internalType":"bool","name":"sold","type":"bool"},{"internalType":"bool","name":"live","type":"bool"},{"internalType":"bool","name":"biddable","type":"bool"},{"internalType":"uint256","name":"bids","type":"uint256"},{"internalType":"uint256","name":"duration","type":"uint256"}],"internalType":"struct Auction.AuctionStruct[]","name":"Auctions","type":"tuple[]"}],"stateMutability":"view","type":"function"},{"inputs":[{"internalType":"uint256","name":"id","type":"uint256"}],"name":"getAuction","outputs":[{"components":[{"internalType":"string","name":"name","type":"string"},{"internalType":"string","name":"description","type":"string"},{"internalType":"uint256","name":"domain","type":"uint256"},{"internalType":"address","name":"seller","type":"address"},{"internalType":"address","name":"owner","type":"address"},{"internalType":"address","name":"winner","type":"address"},{"internalType":"uint256","name":"price","type":"uint256"},{"internalType":"bool","name":"sold","type":"bool"},{"internalType":"bool","name":"live","type":"bool"},{"internalType":"bool","name":"biddable","type":"bool"},{"internalType":"uint256","name":"bids","type":"uint256"},{"internalType":"uint256","name":"duration","type":"uint256"}],"internalType":"struct Auction.AuctionStruct","name":"","type":"tuple"}],"stateMutability":"view","type":"function"},{"inputs":[{"internalType":"uint256","name":"domain","type":"uint256"}],"name":"getBidders","outputs":[{"components":[{"internalType":"address","name":"bidder","type":"address"},{"internalType":"uint256","name":"price","type":"uint256"},{"internalType":"uint256","name":"timestamp","type":"uint256"},{"internalType":"bool","name":"refunded","type":"bool"},{"internalType":"bool","name":"won","type":"bool"}],"internalType":"struct Auction.BidderStruct[]","name":"","type":"tuple[]"}],"stateMutability":"view","type":"function"},{"inputs":[],"name":"getListingPrice","outputs":[{"internalType":"uint256","name":"","type":"uint256"}],"stateMutability":"view","type":"function"},{"inputs":[],"name":"getLiveAuctions","outputs":[{"components":[{"internalType":"string","name":"name","type":"string"},{"internalType":"string","name":"description","type":"string"},{"internalType":"uint256","name":"domain","type":"uint256"},{"internalType":"address","name":"seller","type":"address"},{"internalType":"address","name":"owner","type":"address"},{"internalType":"address","name":"winner","type":"address"},{"internalType":"uint256","name":"price","type":"uint256"},{"internalType":"bool","name":"sold","type":"bool"},{"internalType":"bool","name":"live","type":"bool"},{"internalType":"bool","name":"biddable","type":"bool"},{"internalType":"uint256","name":"bids","type":"uint256"},{"internalType":"uint256","name":"duration","type":"uint256"}],"internalType":"struct Auction.AuctionStruct[]","name":"Auctions","type":"tuple[]"}],"stateMutability":"view","type":"function"},{"inputs":[],"name":"getMyAuctions","outputs":[{"components":[{"internalType":"string","name":"name","type":"string"},{"internalType":"string","name":"description","type":"string"},{"internalType":"uint256","name":"domain","type":"uint256"},{"internalType":"address","name":"seller","type":"address"},{"internalType":"address","name":"owner","type":"address"},{"internalType":"address","name":"winner","type":"address"},{"internalType":"uint256","name":"price","type":"uint256"},{"internalType":"bool","name":"sold","type":"bool"},{"internalType":"bool","name":"live","type":"bool"},{"internalType":"bool","name":"biddable","type":"bool"},{"internalType":"uint256","name":"bids","type":"uint256"},{"internalType":"uint256","name":"duration","type":"uint256"}],"internalType":"struct Auction.AuctionStruct[]","name":"Auctions","type":"tuple[]"}],"stateMutability":"view","type":"function"},{"inputs":[],"name":"getSoldAuction","outputs":[{"components":[{"internalType":"string","name":"name","type":"string"},{"internalType":"string","name":"description","type":"string"},{"internalType":"uint256","name":"domain","type":"uint256"},{"internalType":"address","name":"seller","type":"address"},{"internalType":"address","name":"owner","type":"address"},{"internalType":"address","name":"winner","type":"address"},{"internalType":"uint256","name":"price","type":"uint256"},{"internalType":"bool","name":"sold","type":"bool"},{"internalType":"bool","name":"live","type":"bool"},{"internalType":"bool","name":"biddable","type":"bool"},{"internalType":"uint256","name":"bids","type":"uint256"},{"internalType":"uint256","name":"duration","type":"uint256"}],"internalType":"struct Auction.AuctionStruct[]","name":"Auctions","type":"tuple[]"}],"stateMutability":"view","type":"function"},{"inputs":[],"name":"getUnsoldAuction","outputs":[{"components":[{"internalType":"string","name":"name","type":"string"},{"internalType":"string","name":"description","type":"string"},{"internalType":"uint256","name":"domain","type":"uint256"},{"internalType":"address","name":"seller","type":"address"},{"internalType":"address","name":"owner","type":"address"},{"internalType":"address","name":"winner","type":"address"},{"internalType":"uint256","name":"price","type":"uint256"},{"internalType":"bool","name":"sold","type":"bool"},{"internalType":"bool","name":"live","type":"bool"},{"internalType":"bool","name":"biddable","type":"bool"},{"internalType":"uint256","name":"bids","type":"uint256"},{"internalType":"uint256","name":"duration","type":"uint256"}],"internalType":"struct Auction.AuctionStruct[]","name":"Auctions","type":"tuple[]"}],"stateMutability":"view","type":"function"},{"inputs":[{"internalType":"uint256","name":"domain","type":"uint256"},{"internalType":"bool","name":"biddable","type":"bool"},{"internalType":"uint256","name":"sec","type":"uint256"},{"internalType":"uint256","name":"min","type":"uint256"},{"internalType":"uint256","name":"hour","type":"uint256"},{"internalType":"uint256","name":"day","type":"uint256"}],"name":"offerAuction","outputs":[],"stateMutability":"nonpayable","type":"function"},{"inputs":[{"internalType":"uint256","name":"domain","type":"uint256"}],"name":"placeBid","outputs":[],"stateMutability":"payable","type":"function"},{"inputs":[{"internalType":"uint256","name":"_price","type":"uint256"}],"name":"setListingPrice","outputs":[],"stateMutability":"nonpayable","type":"function"}],"evm":{"bytecode":{"linkReferences":{},"object":"6080604052662386f26fc1000060035534801561001b57600080fd5b50604051620026ec380380620026ec83398101604081905261003c9161005b565b6001600055600280546001600160a01b03191633179055600455610074565b60006020828403121561006d57600080fd5b5051919050565b61266880620000846000396000f3fe6080604052600436106100dd5760003560e01c8063a923f18c1161007f578063cbd2bdfd11610059578063cbd2bdfd14610220578063db0bd5c914610235578063ddf207061461024a578063e80838631461025d57600080fd5b8063a923f18c146101cb578063b3de019c146101eb578063bf65a3331461020b57600080fd5b806378bd7935116100bb57806378bd7935146101545780637c726b69146101815780639979ef45146101a35780639e78efd6146101b657600080fd5b806312e85585146100e25780631d8df68f146101055780634fa7b50714610127575b600080fd5b3480156100ee57600080fd5b506003546040519081526020015b60405180910390f35b34801561011157600080fd5b5061011a61027d565b6040516100fc919061227c565b34801561013357600080fd5b506101476101423660046122de565b610589565b6040516100fc91906122f7565b34801561016057600080fd5b5061017461016f3660046122de565b61063b565b6040516100fc9190612372565b34801561018d57600080fd5b506101a161019c3660046122de565b61086e565b005b6101a16101b13660046122de565b61089d565b3480156101c257600080fd5b5061011a610acf565b3480156101d757600080fd5b506101a16101e636600461238c565b610dd2565b3480156101f757600080fd5b506101a16102063660046123e1565b610ec5565b34801561021757600080fd5b5061011a610fc4565b34801561022c57600080fd5b5061011a6112d9565b34801561024157600080fd5b5061011a611551565b6101a16102583660046124a6565b61186a565b34801561026957600080fd5b506101a16102783660046122de565b611b1c565b6060600061028a60015490565b90506000805b828110156102e357600560006102a7836001612529565b815260208101919091526040016000206007015460ff16156102d157816102cd81612541565b9250505b806102db81612541565b915050610290565b508067ffffffffffffffff8111156102fd576102fd612403565b60405190808252806020026020018201604052801561033657816020015b610323611fd5565b81526020019060019003908161031b5790505b5092506000805b838110156105825760056000610354836001612529565b815260208101919091526040016000206007015460ff1615610570576005600061037f836001612529565b8152602001908152602001600020604051806101800160405290816000820180546103a99061255c565b80601f01602080910402602001604051908101604052809291908181526020018280546103d59061255c565b80156104225780601f106103f757610100808354040283529160200191610422565b820191906000526020600020905b81548152906001019060200180831161040557829003601f168201915b5050505050815260200160018201805461043b9061255c565b80601f01602080910402602001604051908101604052809291908181526020018280546104679061255c565b80156104b45780601f10610489576101008083540402835291602001916104b4565b820191906000526020600020905b81548152906001019060200180831161049757829003601f168201915b50505091835250506002820154602082015260038201546001600160a01b0390811660408301526004830154811660608301526005830154166080820152600682015460a0820152600782015460ff808216151560c08401526101008083048216151560e08501526201000090920416151590820152600882015461012082015260099091015461014090910152855186908490811061055657610556612597565b6020026020010181905250818061056c90612541565b9250505b8061057a81612541565b91505061033d565b5050505090565b606060076000838152602001908152602001600020805480602002602001604051908101604052809291908181526020016000905b828210156106305760008481526020908190206040805160a0810182526004860290920180546001600160a01b03168352600180820154848601526002820154928401929092526003015460ff80821615156060850152610100909104161515608083015290835290920191016105be565b505050509050919050565b610643611fd5565b60008281526006602052604090205460ff166106a65760405162461bcd60e51b815260206004820152601860248201527f41756374696f6e6564204974656d206e6f7420666f756e64000000000000000060448201526064015b60405180910390fd5b60008281526005602052604090819020815161018081019092528054829082906106cf9061255c565b80601f01602080910402602001604051908101604052809291908181526020018280546106fb9061255c565b80156107485780601f1061071d57610100808354040283529160200191610748565b820191906000526020600020905b81548152906001019060200180831161072b57829003601f168201915b505050505081526020016001820180546107619061255c565b80601f016020809104026020016040519081016040528092919081815260200182805461078d9061255c565b80156107da5780601f106107af576101008083540402835291602001916107da565b820191906000526020600020905b8154815290600101906020018083116107bd57829003601f168201915b50505091835250506002820154602082015260038201546001600160a01b0390811660408301526004830154811660608301526005830154166080820152600682015460a0820152600782015460ff808216151560c08401526101008083048216151560e0850152620100009092041615159082015260088201546101208201526009909101546101409091015292915050565b6002546001600160a01b031633146108985760405162461bcd60e51b815260040161069d906125ad565b600355565b6000818152600560205260409020600601543410156108f45760405162461bcd60e51b8152602060048201526013602482015272125b9cdd59999a58da595b9d08105b5bdd5b9d606a1b604482015260640161069d565b610902600080600080611cd5565b600082815260056020526040902060090154116109595760405162461bcd60e51b815260206004820152601560248201527441756374696f6e206e6f7420617661696c61626c6560581b604482015260640161069d565b60008181526005602052604090206007015462010000900460ff166109c05760405162461bcd60e51b815260206004820152601860248201527f41756374696f6e206f6e6c7920666f722062696464696e670000000000000000604482015260640161069d565b6040805160a08101825260009181018290526060810182905260808101829052338152346020820152906109f690808080611cd5565b6040808301918252600084815260076020908152828220805460018181018355918452828420875160049092020180546001600160a01b039092166001600160a01b0319909216919091178155828701519181019190915593516002850155606085015160039094018054608087015115156101000261ff00199615159690961661ffff19909116179490941790935584815260059092528120600801805491610a9f83612541565b90915550505060009081526005602081905260409091203460068201550180546001600160a01b03191633179055565b60606000610adc60015490565b90506000805b82811015610b345760056000610af9836001612529565b815260208101919091526040016000206007015460ff16610b225781610b1e81612541565b9250505b80610b2c81612541565b915050610ae2565b508067ffffffffffffffff811115610b4e57610b4e612403565b604051908082528060200260200182016040528015610b8757816020015b610b74611fd5565b815260200190600190039081610b6c5790505b5092506000805b838110156105825760056000610ba5836001612529565b815260208101919091526040016000206007015460ff16610dc05760056000610bcf836001612529565b815260200190815260200160002060405180610180016040529081600082018054610bf99061255c565b80601f0160208091040260200160405190810160405280929190818152602001828054610c259061255c565b8015610c725780601f10610c4757610100808354040283529160200191610c72565b820191906000526020600020905b815481529060010190602001808311610c5557829003601f168201915b50505050508152602001600182018054610c8b9061255c565b80601f0160208091040260200160405190810160405280929190818152602001828054610cb79061255c565b8015610d045780601f10610cd957610100808354040283529160200191610d04565b820191906000526020600020905b815481529060010190602001808311610ce757829003601f168201915b50505091835250506002820154602082015260038201546001600160a01b0390811660408301526004830154811660608301526005830154166080820152600682015460a0820152600782015460ff808216151560c08401526101008083048216151560e085015262010000909204161515908201526008820154610120820152600990910154610140909101528551869084908110610da657610da6612597565b60200260200101819052508180610dbc90612541565b9250505b80610dca81612541565b915050610b8e565b6000868152600560205260409020600401546001600160a01b03163314610e0b5760405162461bcd60e51b815260040161069d906125ad565b60008681526005602052604090206008015415610e6a5760405162461bcd60e51b815260206004820152601f60248201527f57696e6e65722073686f756c6420636c61696d207072697a6520666972737400604482015260640161069d565b60008681526005602052604081206008810191909155600701805461010062ffffff19909116620100008815150217179055610ea884848484611cd5565b600096875260056020526040909620600901959095555050505050565b6000828152600560205260409020600401546001600160a01b03163314610efe5760405162461bcd60e51b815260040161069d906125ad565b60008281526005602052604081206009015490610f1d90808080611cd5565b11610f5f5760405162461bcd60e51b815260206004820152601260248201527141756374696f6e207374696c6c204c69766560701b604482015260640161069d565b60008111610faf5760405162461bcd60e51b815260206004820152601f60248201527f5072696365206d7573742062652067726561746572207468616e207a65726f00604482015260640161069d565b60009182526005602052604090912060060155565b60606000610fd160015490565b90506000805b82811015611032573360056000610fef846001612529565b81526020810191909152604001600020600401546001600160a01b03161415611020578161101c81612541565b9250505b8061102a81612541565b915050610fd7565b508067ffffffffffffffff81111561104c5761104c612403565b60405190808252806020026020018201604052801561108557816020015b611072611fd5565b81526020019060019003908161106a5790505b5092506000805b838110156105825733600560006110a4846001612529565b81526020810191909152604001600020600401546001600160a01b031614156112c757600560006110d6836001612529565b8152602001908152602001600020604051806101800160405290816000820180546111009061255c565b80601f016020809104026020016040519081016040528092919081815260200182805461112c9061255c565b80156111795780601f1061114e57610100808354040283529160200191611179565b820191906000526020600020905b81548152906001019060200180831161115c57829003601f168201915b505050505081526020016001820180546111929061255c565b80601f01602080910402602001604051908101604052809291908181526020018280546111be9061255c565b801561120b5780601f106111e05761010080835404028352916020019161120b565b820191906000526020600020905b8154815290600101906020018083116111ee57829003601f168201915b50505091835250506002820154602082015260038201546001600160a01b0390811660408301526004830154811660608301526005830154166080820152600682015460a0820152600782015460ff808216151560c08401526101008083048216151560e0850152620100009092041615159082015260088201546101208201526009909101546101409091015285518690849081106112ad576112ad612597565b602002602001018190525081806112c390612541565b9250505b806112d181612541565b91505061108c565b606060006112e660015490565b90508067ffffffffffffffff81111561130157611301612403565b60405190808252806020026020018201604052801561133a57816020015b611327611fd5565b81526020019060019003908161131f5790505b50915060005b8181101561154c5760056000611357836001612529565b8152602001908152602001600020604051806101800160405290816000820180546113819061255c565b80601f01602080910402602001604051908101604052809291908181526020018280546113ad9061255c565b80156113fa5780601f106113cf576101008083540402835291602001916113fa565b820191906000526020600020905b8154815290600101906020018083116113dd57829003601f168201915b505050505081526020016001820180546114139061255c565b80601f016020809104026020016040519081016040528092919081815260200182805461143f9061255c565b801561148c5780601f106114615761010080835404028352916020019161148c565b820191906000526020600020905b81548152906001019060200180831161146f57829003601f168201915b50505091835250506002820154602082015260038201546001600160a01b0390811660408301526004830154811660608301526005830154166080820152600682015460a0820152600782015460ff808216151560c08401526101008083048216151560e08501526201000090920416151590820152600882015461012082015260099091015461014090910152835184908390811061152e5761152e612597565b6020026020010181905250808061154490612541565b915050611340565b505090565b6060600061155e60015490565b90506000805b828110156115c15761157a600080600080611cd5565b60056000611589846001612529565b81526020019081526020016000206009015411156115af57816115ab81612541565b9250505b806115b981612541565b915050611564565b508067ffffffffffffffff8111156115db576115db612403565b60405190808252806020026020018201604052801561161457816020015b611601611fd5565b8152602001906001900390816115f95790505b5092506000805b8381101561058257611631600080600080611cd5565b60056000611640846001612529565b81526020019081526020016000206009015411156118585760056000611667836001612529565b8152602001908152602001600020604051806101800160405290816000820180546116919061255c565b80601f01602080910402602001604051908101604052809291908181526020018280546116bd9061255c565b801561170a5780601f106116df5761010080835404028352916020019161170a565b820191906000526020600020905b8154815290600101906020018083116116ed57829003601f168201915b505050505081526020016001820180546117239061255c565b80601f016020809104026020016040519081016040528092919081815260200182805461174f9061255c565b801561179c5780601f106117715761010080835404028352916020019161179c565b820191906000526020600020905b81548152906001019060200180831161177f57829003601f168201915b50505091835250506002820154602082015260038201546001600160a01b0390811660408301526004830154811660608301526005830154166080820152600682015460a0820152600782015460ff808216151560c08401526101008083048216151560e08501526201000090920416151590820152600882015461012082015260099091015461014090910152855186908490811061183e5761183e612597565b6020026020010181905250818061185490612541565b9250505b8061186281612541565b91505061161b565b611872611d37565b600081116118d55760405162461bcd60e51b815260206004820152602a60248201527f53616c6573207072696365206d7573742062652067726561746572207468616e60448201526910181032ba3432b9399760b11b606482015260840161069d565b6003543410156119365760405162461bcd60e51b815260206004820152602660248201527f5072696365206d75737420626520757020746f20746865206c697374696e6720604482015265383934b1b29760d11b606482015260840161069d565b600061194160015490565b905061194b611fd5565b604081018290528481526020810184905260c081018390526119706000808080611cd5565b6101608201523360608201819052608082015260008281526005602090815260409091208251805184936119a8928492910190612057565b5060208281015180516119c19260018501920190612057565b506040828101516002838101919091556060840151600380850180546001600160a01b03199081166001600160a01b03948516179091556080870151600487018054831691851691909117905560a087015160058701805490921690841617905560c086015160068087019190915560e0870151600787018054610100808b01516101208c015161ffff1990931694151561ff00191694909417931515029290921762ff000019166201000092151592909202919091179055610140870151600887015561016090960151600990950194909455600087815260209590955291909320805460ff1916600117905591549054611ac1929190911690611d91565b604080513381526000602082018190528183018690526060820152905183917fa693a8f68fe4df789541ddd1b84d32ccaea90adddcc88406b4bbbf6466328d3c919081900360800190a25050611b176001600055565b505050565b60008181526005602052604081206009015490611b3b90808080611cd5565b11611b7d5760405162461bcd60e51b815260206004820152601260248201527141756374696f6e207374696c6c204c69766560701b604482015260640161069d565b6000818152600560205260409020600301546001600160a01b03163314611bdf5760405162461bcd60e51b81526020600482015260166024820152752cb7ba9030b932903737ba103a34329039b2b63632b960511b604482015260640161069d565b600081815260056020819052604082206006810154600382015492820180546001600160a01b031916905560078201805461ffff191660011790556008909101839055916001600160a01b0390911690611c3b90808080611cd5565b600084815260056020526040812060090191909155600454606490611c6090856125da565b611c6a91906125f9565b600085815260056020526040902060040154909150611c9b906001600160a01b0316611c96838661261b565b611d91565b611ca58282611d91565b600084815260056020526040902060040180546001600160a01b03191633179055611ccf84611df1565b50505050565b6000611ce482620151806125da565b611cf084610e106125da565b611cfb86603c6125da565b611d068860016125da565b611d109042612529565b611d1a9190612529565b611d249190612529565b611d2e9190612529565b95945050505050565b60026000541415611d8a5760405162461bcd60e51b815260206004820152601f60248201527f5265656e7472616e637947756172643a207265656e7472616e742063616c6c00604482015260640161069d565b6002600055565b6000826001600160a01b03168260405160006040518083038185875af1925050503d8060008114611dde576040519150601f19603f3d011682016040523d82523d6000602084013e611de3565b606091505b5050905080611b1757600080fd5b60005b600082815260076020526040902054811015611fba576000828152600760205260409020805433919083908110611e2d57611e2d612597565b60009182526020909120600490910201546001600160a01b031614611f1957600082815260076020526040902080546001919083908110611e7057611e70612597565b906000526020600020906004020160030160006101000a81548160ff021916908315150217905550611f14600760008481526020019081526020016000208281548110611ebf57611ebf612597565b600091825260208083206004909202909101548583526007909152604090912080546001600160a01b039092169184908110611efd57611efd612597565b906000526020600020906004020160010154611d91565b611f66565b600082815260076020526040902080546001919083908110611f3d57611f3d612597565b906000526020600020906004020160030160016101000a81548160ff0219169083151502179055505b611f74600080600080611cd5565b6000838152600760205260409020805483908110611f9457611f94612597565b600091825260209091206002600490920201015580611fb281612541565b915050611df4565b506000818152600760205260408120611fd2916120db565b50565b60405180610180016040528060608152602001606081526020016000815260200160006001600160a01b0316815260200160006001600160a01b0316815260200160006001600160a01b031681526020016000815260200160001515815260200160001515815260200160001515815260200160008152602001600081525090565b8280546120639061255c565b90600052602060002090601f01602090048101928261208557600085556120cb565b82601f1061209e57805160ff19168380011785556120cb565b828001600101855582156120cb579182015b828111156120cb5782518255916020019190600101906120b0565b506120d79291506120fc565b5090565b5080546000825560040290600052602060002090810190611fd29190612111565b5b808211156120d757600081556001016120fd565b5b808211156120d75780546001600160a01b0319168155600060018201819055600282015560038101805461ffff19169055600401612112565b6000815180845260005b8181101561217157602081850181015186830182015201612155565b81811115612183576000602083870101525b50601f01601f19169290920160200192915050565b600061018082518185526121ae8286018261214b565b915050602083015184820360208601526121c8828261214b565b9150506040830151604085015260608301516121ef60608601826001600160a01b03169052565b50608083015161220a60808601826001600160a01b03169052565b5060a083015161222560a08601826001600160a01b03169052565b5060c083015160c085015260e083015161224360e086018215159052565b50610100838101511515908501526101208084015115159085015261014080840151908501526101609283015192909301919091525090565b6000602080830181845280855180835260408601915060408160051b870101925083870160005b828110156122d157603f198886030184526122bf858351612198565b945092850192908501906001016122a3565b5092979650505050505050565b6000602082840312156122f057600080fd5b5035919050565b602080825282518282018190526000919060409081850190868401855b8281101561236557815180516001600160a01b031685528681015187860152858101518686015260608082015115159086015260809081015115159085015260a09093019290850190600101612314565b5091979650505050505050565b6020815260006123856020830184612198565b9392505050565b60008060008060008060c087890312156123a557600080fd5b86359550602087013580151581146123bc57600080fd5b95989597505050506040840135936060810135936080820135935060a0909101359150565b600080604083850312156123f457600080fd5b50508035926020909101359150565b634e487b7160e01b600052604160045260246000fd5b600082601f83011261242a57600080fd5b813567ffffffffffffffff8082111561244557612445612403565b604051601f8301601f19908116603f0116810190828211818310171561246d5761246d612403565b8160405283815286602085880101111561248657600080fd5b836020870160208301376000602085830101528094505050505092915050565b6000806000606084860312156124bb57600080fd5b833567ffffffffffffffff808211156124d357600080fd5b6124df87838801612419565b945060208601359150808211156124f557600080fd5b5061250286828701612419565b925050604084013590509250925092565b634e487b7160e01b600052601160045260246000fd5b6000821982111561253c5761253c612513565b500190565b600060001982141561255557612555612513565b5060010190565b600181811c9082168061257057607f821691505b6020821081141561259157634e487b7160e01b600052602260045260246000fd5b50919050565b634e487b7160e01b600052603260045260246000fd5b602080825260139082015272556e617574686f72697a656420656e7469747960681b604082015260600190565b60008160001904831182151516156125f4576125f4612513565b500290565b60008261261657634e487b7160e01b600052601260045260246000fd5b500490565b60008282101561262d5761262d612513565b50039056fea26469706673582212201b37f51130ff8a825cac21b66ee5359a414b43f6ce40cfca06763564ea0d32c264736f6c634300080b0033","opcodes":"PUSH1 0x80 PUSH1 0x40 MSTORE PUSH7 0x2386F26FC10000 PUSH1 0x3 SSTORE CALLVALUE DUP1 ISZERO PUSH2 0x1B JUMPI PUSH1 0x0 DUP1 REVERT JUMPDEST POP PUSH1 0x40 MLOAD PUSH3 0x26EC CODESIZE SUB DUP1 PUSH3 0x26EC DUP4 CODECOPY DUP2 ADD PUSH1 0x40 DUP2 SWAP1 MSTORE PUSH2 0x3C SWAP2 PUSH2 0x5B JUMP JUMPDEST PUSH1 0x1 PUSH1 0x0 SSTORE PUSH1 0x2 DUP1 SLOAD PUSH1 0x1 PUSH1 0x1 PUSH1 0xA0 SHL SUB NOT AND CALLER OR SWAP1 SSTORE PUSH1 0x4 SSTORE PUSH2 0x74 JUMP JUMPDEST PUSH1 0x0 PUSH1 0x20 DUP3 DUP5 SUB SLT ISZERO PUSH2 0x6D JUMPI PUSH1 0x0 DUP1 REVERT JUMPDEST POP MLOAD SWAP2 SWAP1 POP JUMP JUMPDEST PUSH2 0x2668 DUP1 PUSH3 0x84 PUSH1 0x0 CODECOPY PUSH1 0x0 RETURN INVALID PUSH1 0x80 PUSH1 0x40 MSTORE PUSH1 0x4 CALLDATASIZE LT PUSH2 0xDD JUMPI PUSH1 0x0 CALLDATALOAD PUSH1 0xE0 SHR DUP1 PUSH4 0xA923F18C GT PUSH2 0x7F JUMPI DUP1 PUSH4 0xCBD2BDFD GT PUSH2 0x59 JUMPI DUP1 PUSH4 0xCBD2BDFD EQ PUSH2 0x220 JUMPI DUP1 PUSH4 0xDB0BD5C9 EQ PUSH2 0x235 JUMPI DUP1 PUSH4 0xDDF20706 EQ PUSH2 0x24A JUMPI DUP1 PUSH4 0xE8083863 EQ PUSH2 0x25D JUMPI PUSH1 0x0 DUP1 REVERT JUMPDEST DUP1 PUSH4 0xA923F18C EQ PUSH2 0x1CB JUMPI DUP1 PUSH4 0xB3DE019C EQ PUSH2 0x1EB JUMPI DUP1 PUSH4 0xBF65A333 EQ PUSH2 0x20B JUMPI PUSH1 0x0 DUP1 REVERT JUMPDEST DUP1 PUSH4 0x78BD7935 GT PUSH2 0xBB JUMPI DUP1 PUSH4 0x78BD7935 EQ PUSH2 0x154 JUMPI DUP1 PUSH4 0x7C726B69 EQ PUSH2 0x181 JUMPI DUP1 PUSH4 0x9979EF45 EQ PUSH2 0x1A3 JUMPI DUP1 PUSH4 0x9E78EFD6 EQ PUSH2 0x1B6 JUMPI PUSH1 0x0 DUP1 REVERT JUMPDEST DUP1 PUSH4 0x12E85585 EQ PUSH2 0xE2 JUMPI DUP1 PUSH4 0x1D8DF68F EQ PUSH2 0x105 JUMPI DUP1 PUSH4 0x4FA7B507 EQ PUSH2 0x127 JUMPI JUMPDEST PUSH1 0x0 DUP1 REVERT JUMPDEST CALLVALUE DUP1 ISZERO PUSH2 0xEE JUMPI PUSH1 0x0 DUP1 REVERT JUMPDEST POP PUSH1 0x3 SLOAD PUSH1 0x40 MLOAD SWAP1 DUP2 MSTORE PUSH1 0x20 ADD JUMPDEST PUSH1 0x40 MLOAD DUP1 SWAP2 SUB SWAP1 RETURN JUMPDEST CALLVALUE DUP1 ISZERO PUSH2 0x111 JUMPI PUSH1 0x0 DUP1 REVERT JUMPDEST POP PUSH2 0x11A PUSH2 0x27D JUMP JUMPDEST PUSH1 0x40 MLOAD PUSH2 0xFC SWAP2 SWAP1 PUSH2 0x227C JUMP JUMPDEST CALLVALUE DUP1 ISZERO PUSH2 0x133 JUMPI PUSH1 0x0 DUP1 REVERT JUMPDEST POP PUSH2 0x147 PUSH2 0x142 CALLDATASIZE PUSH1 0x4 PUSH2 0x22DE JUMP JUMPDEST PUSH2 0x589 JUMP JUMPDEST PUSH1 0x40 MLOAD PUSH2 0xFC SWAP2 SWAP1 PUSH2 0x22F7 JUMP JUMPDEST CALLVALUE DUP1 ISZERO PUSH2 0x160 JUMPI PUSH1 0x0 DUP1 REVERT JUMPDEST POP PUSH2 0x174 PUSH2 0x16F CALLDATASIZE PUSH1 0x4 PUSH2 0x22DE JUMP JUMPDEST PUSH2 0x63B JUMP JUMPDEST PUSH1 0x40 MLOAD PUSH2 0xFC SWAP2 SWAP1 PUSH2 0x2372 JUMP JUMPDEST CALLVALUE DUP1 ISZERO PUSH2 0x18D JUMPI PUSH1 0x0 DUP1 REVERT JUMPDEST POP PUSH2 0x1A1 PUSH2 0x19C CALLDATASIZE PUSH1 0x4 PUSH2 0x22DE JUMP JUMPDEST PUSH2 0x86E JUMP JUMPDEST STOP JUMPDEST PUSH2 0x1A1 PUSH2 0x1B1 CALLDATASIZE PUSH1 0x4 PUSH2 0x22DE JUMP JUMPDEST PUSH2 0x89D JUMP JUMPDEST CALLVALUE DUP1 ISZERO PUSH2 0x1C2 JUMPI PUSH1 0x0 DUP1 REVERT JUMPDEST POP PUSH2 0x11A PUSH2 0xACF JUMP JUMPDEST CALLVALUE DUP1 ISZERO PUSH2 0x1D7 JUMPI PUSH1 0x0 DUP1 REVERT JUMPDEST POP PUSH2 0x1A1 PUSH2 0x1E6 CALLDATASIZE PUSH1 0x4 PUSH2 0x238C JUMP JUMPDEST PUSH2 0xDD2 JUMP JUMPDEST CALLVALUE DUP1 ISZERO PUSH2 0x1F7 JUMPI PUSH1 0x0 DUP1 REVERT JUMPDEST POP PUSH2 0x1A1 PUSH2 0x206 CALLDATASIZE PUSH1 0x4 PUSH2 0x23E1 JUMP JUMPDEST PUSH2 0xEC5 JUMP JUMPDEST CALLVALUE DUP1 ISZERO PUSH2 0x217 JUMPI PUSH1 0x0 DUP1 REVERT JUMPDEST POP PUSH2 0x11A PUSH2 0xFC4 JUMP JUMPDEST CALLVALUE DUP1 ISZERO PUSH2 0x22C JUMPI PUSH1 0x0 DUP1 REVERT JUMPDEST POP PUSH2 0x11A PUSH2 0x12D9 JUMP JUMPDEST CALLVALUE DUP1 ISZERO PUSH2 0x241 JUMPI PUSH1 0x0 DUP1 REVERT JUMPDEST POP PUSH2 0x11A PUSH2 0x1551 JUMP JUMPDEST PUSH2 0x1A1 PUSH2 0x258 CALLDATASIZE PUSH1 0x4 PUSH2 0x24A6 JUMP JUMPDEST PUSH2 0x186A JUMP JUMPDEST CALLVALUE DUP1 ISZERO PUSH2 0x269 JUMPI PUSH1 0x0 DUP1 REVERT JUMPDEST POP PUSH2 0x1A1 PUSH2 0x278 CALLDATASIZE PUSH1 0x4 PUSH2 0x22DE JUMP JUMPDEST PUSH2 0x1B1C JUMP JUMPDEST PUSH1 0x60 PUSH1 0x0 PUSH2 0x28A PUSH1 0x1 SLOAD SWAP1 JUMP JUMPDEST SWAP1 POP PUSH1 0x0 DUP1 JUMPDEST DUP3 DUP2 LT ISZERO PUSH2 0x2E3 JUMPI PUSH1 0x5 PUSH1 0x0 PUSH2 0x2A7 DUP4 PUSH1 0x1 PUSH2 0x2529 JUMP JUMPDEST DUP2 MSTORE PUSH1 0x20 DUP2 ADD SWAP2 SWAP1 SWAP2 MSTORE PUSH1 0x40 ADD PUSH1 0x0 KECCAK256 PUSH1 0x7 ADD SLOAD PUSH1 0xFF AND ISZERO PUSH2 0x2D1 JUMPI DUP2 PUSH2 0x2CD DUP2 PUSH2 0x2541 JUMP JUMPDEST SWAP3 POP POP JUMPDEST DUP1 PUSH2 0x2DB DUP2 PUSH2 0x2541 JUMP JUMPDEST SWAP2 POP POP PUSH2 0x290 JUMP JUMPDEST POP DUP1 PUSH8 0xFFFFFFFFFFFFFFFF DUP2 GT ISZERO PUSH2 0x2FD JUMPI PUSH2 0x2FD PUSH2 0x2403 JUMP JUMPDEST PUSH1 0x40 MLOAD SWAP1 DUP1 DUP3 MSTORE DUP1 PUSH1 0x20 MUL PUSH1 0x20 ADD DUP3 ADD PUSH1 0x40 MSTORE DUP1 ISZERO PUSH2 0x336 JUMPI DUP2 PUSH1 0x20 ADD JUMPDEST PUSH2 0x323 PUSH2 0x1FD5 JUMP JUMPDEST DUP2 MSTORE PUSH1 0x20 ADD SWAP1 PUSH1 0x1 SWAP1 SUB SWAP1 DUP2 PUSH2 0x31B JUMPI SWAP1 POP JUMPDEST POP SWAP3 POP PUSH1 0x0 DUP1 JUMPDEST DUP4 DUP2 LT ISZERO PUSH2 0x582 JUMPI PUSH1 0x5 PUSH1 0x0 PUSH2 0x354 DUP4 PUSH1 0x1 PUSH2 0x2529 JUMP JUMPDEST DUP2 MSTORE PUSH1 0x20 DUP2 ADD SWAP2 SWAP1 SWAP2 MSTORE PUSH1 0x40 ADD PUSH1 0x0 KECCAK256 PUSH1 0x7 ADD SLOAD PUSH1 0xFF AND ISZERO PUSH2 0x570 JUMPI PUSH1 0x5 PUSH1 0x0 PUSH2 0x37F DUP4 PUSH1 0x1 PUSH2 0x2529 JUMP JUMPDEST DUP2 MSTORE PUSH1 0x20 ADD SWAP1 DUP2 MSTORE PUSH1 0x20 ADD PUSH1 0x0 KECCAK256 PUSH1 0x40 MLOAD DUP1 PUSH2 0x180 ADD PUSH1 0x40 MSTORE SWAP1 DUP2 PUSH1 0x0 DUP3 ADD DUP1 SLOAD PUSH2 0x3A9 SWAP1 PUSH2 0x255C JUMP JUMPDEST DUP1 PUSH1 0x1F ADD PUSH1 0x20 DUP1 SWAP2 DIV MUL PUSH1 0x20 ADD PUSH1 0x40 MLOAD SWAP1 DUP2 ADD PUSH1 0x40 MSTORE DUP1 SWAP3 SWAP2 SWAP1 DUP2 DUP2 MSTORE PUSH1 0x20 ADD DUP3 DUP1 SLOAD PUSH2 0x3D5 SWAP1 PUSH2 0x255C JUMP JUMPDEST DUP1 ISZERO PUSH2 0x422 JUMPI DUP1 PUSH1 0x1F LT PUSH2 0x3F7 JUMPI PUSH2 0x100 DUP1 DUP4 SLOAD DIV MUL DUP4 MSTORE SWAP2 PUSH1 0x20 ADD SWAP2 PUSH2 0x422 JUMP JUMPDEST DUP3 ADD SWAP2 SWAP1 PUSH1 0x0 MSTORE PUSH1 0x20 PUSH1 0x0 KECCAK256 SWAP1 JUMPDEST DUP2 SLOAD DUP2 MSTORE SWAP1 PUSH1 0x1 ADD SWAP1 PUSH1 0x20 ADD DUP1 DUP4 GT PUSH2 0x405 JUMPI DUP3 SWAP1 SUB PUSH1 0x1F AND DUP3 ADD SWAP2 JUMPDEST POP POP POP POP POP DUP2 MSTORE PUSH1 0x20 ADD PUSH1 0x1 DUP3 ADD DUP1 SLOAD PUSH2 0x43B SWAP1 PUSH2 0x255C JUMP JUMPDEST DUP1 PUSH1 0x1F ADD PUSH1 0x20 DUP1 SWAP2 DIV MUL PUSH1 0x20 ADD PUSH1 0x40 MLOAD SWAP1 DUP2 ADD PUSH1 0x40 MSTORE DUP1 SWAP3 SWAP2 SWAP1 DUP2 DUP2 MSTORE PUSH1 0x20 ADD DUP3 DUP1 SLOAD PUSH2 0x467 SWAP1 PUSH2 0x255C JUMP JUMPDEST DUP1 ISZERO PUSH2 0x4B4 JUMPI DUP1 PUSH1 0x1F LT PUSH2 0x489 JUMPI PUSH2 0x100 DUP1 DUP4 SLOAD DIV MUL DUP4 MSTORE SWAP2 PUSH1 0x20 ADD SWAP2 PUSH2 0x4B4 JUMP JUMPDEST DUP3 ADD SWAP2 SWAP1 PUSH1 0x0 MSTORE PUSH1 0x20 PUSH1 0x0 KECCAK256 SWAP1 JUMPDEST DUP2 SLOAD DUP2 MSTORE SWAP1 PUSH1 0x1 ADD SWAP1 PUSH1 0x20 ADD DUP1 DUP4 GT PUSH2 0x497 JUMPI DUP3 SWAP1 SUB PUSH1 0x1F AND DUP3 ADD SWAP2 JUMPDEST POP POP POP SWAP2 DUP4 MSTORE POP POP PUSH1 0x2 DUP3 ADD SLOAD PUSH1 0x20 DUP3 ADD MSTORE PUSH1 0x3 DUP3 ADD SLOAD PUSH1 0x1 PUSH1 0x1 PUSH1 0xA0 SHL SUB SWAP1 DUP2 AND PUSH1 0x40 DUP4 ADD MSTORE PUSH1 0x4 DUP4 ADD SLOAD DUP2 AND PUSH1 0x60 DUP4 ADD MSTORE PUSH1 0x5 DUP4 ADD SLOAD AND PUSH1 0x80 DUP3 ADD MSTORE PUSH1 0x6 DUP3 ADD SLOAD PUSH1 0xA0 DUP3 ADD MSTORE PUSH1 0x7 DUP3 ADD SLOAD PUSH1 0xFF DUP1 DUP3 AND ISZERO ISZERO PUSH1 0xC0 DUP5 ADD MSTORE PUSH2 0x100 DUP1 DUP4 DIV DUP3 AND ISZERO ISZERO PUSH1 0xE0 DUP6 ADD MSTORE PUSH3 0x10000 SWAP1 SWAP3 DIV AND ISZERO ISZERO SWAP1 DUP3 ADD MSTORE PUSH1 0x8 DUP3 ADD SLOAD PUSH2 0x120 DUP3 ADD MSTORE PUSH1 0x9 SWAP1 SWAP2 ADD SLOAD PUSH2 0x140 SWAP1 SWAP2 ADD MSTORE DUP6 MLOAD DUP7 SWAP1 DUP5 SWAP1 DUP2 LT PUSH2 0x556 JUMPI PUSH2 0x556 PUSH2 0x2597 JUMP JUMPDEST PUSH1 0x20 MUL PUSH1 0x20 ADD ADD DUP2 SWAP1 MSTORE POP DUP2 DUP1 PUSH2 0x56C SWAP1 PUSH2 0x2541 JUMP JUMPDEST SWAP3 POP POP JUMPDEST DUP1 PUSH2 0x57A DUP2 PUSH2 0x2541 JUMP JUMPDEST SWAP2 POP POP PUSH2 0x33D JUMP JUMPDEST POP POP POP POP SWAP1 JUMP JUMPDEST PUSH1 0x60 PUSH1 0x7 PUSH1 0x0 DUP4 DUP2 MSTORE PUSH1 0x20 ADD SWAP1 DUP2 MSTORE PUSH1 0x20 ADD PUSH1 0x0 KECCAK256 DUP1 SLOAD DUP1 PUSH1 0x20 MUL PUSH1 0x20 ADD PUSH1 0x40 MLOAD SWAP1 DUP2 ADD PUSH1 0x40 MSTORE DUP1 SWAP3 SWAP2 SWAP1 DUP2 DUP2 MSTORE PUSH1 0x20 ADD PUSH1 0x0 SWAP1 JUMPDEST DUP3 DUP3 LT ISZERO PUSH2 0x630 JUMPI PUSH1 0x0 DUP5 DUP2 MSTORE PUSH1 0x20 SWAP1 DUP2 SWAP1 KECCAK256 PUSH1 0x40 DUP1 MLOAD PUSH1 0xA0 DUP2 ADD DUP3 MSTORE PUSH1 0x4 DUP7 MUL SWAP1 SWAP3 ADD DUP1 SLOAD PUSH1 0x1 PUSH1 0x1 PUSH1 0xA0 SHL SUB AND DUP4 MSTORE PUSH1 0x1 DUP1 DUP3 ADD SLOAD DUP5 DUP7 ADD MSTORE PUSH1 0x2 DUP3 ADD SLOAD SWAP3 DUP5 ADD SWAP3 SWAP1 SWAP3 MSTORE PUSH1 0x3 ADD SLOAD PUSH1 0xFF DUP1 DUP3 AND ISZERO ISZERO PUSH1 0x60 DUP6 ADD MSTORE PUSH2 0x100 SWAP1 SWAP2 DIV AND ISZERO ISZERO PUSH1 0x80 DUP4 ADD MSTORE SWAP1 DUP4 MSTORE SWAP1 SWAP3 ADD SWAP2 ADD PUSH2 0x5BE JUMP JUMPDEST POP POP POP POP SWAP1 POP SWAP2 SWAP1 POP JUMP JUMPDEST PUSH2 0x643 PUSH2 0x1FD5 JUMP JUMPDEST PUSH1 0x0 DUP3 DUP2 MSTORE PUSH1 0x6 PUSH1 0x20 MSTORE PUSH1 0x40 SWAP1 KECCAK256 SLOAD PUSH1 0xFF AND PUSH2 0x6A6 JUMPI PUSH1 0x40 MLOAD PUSH3 0x461BCD PUSH1 0xE5 SHL DUP2 MSTORE PUSH1 0x20 PUSH1 0x4 DUP3 ADD MSTORE PUSH1 0x18 PUSH1 0x24 DUP3 ADD MSTORE PUSH32 0x41756374696F6E6564204974656D206E6F7420666F756E640000000000000000 PUSH1 0x44 DUP3 ADD MSTORE PUSH1 0x64 ADD JUMPDEST PUSH1 0x40 MLOAD DUP1 SWAP2 SUB SWAP1 REVERT JUMPDEST PUSH1 0x0 DUP3 DUP2 MSTORE PUSH1 0x5 PUSH1 0x20 MSTORE PUSH1 0x40 SWAP1 DUP2 SWAP1 KECCAK256 DUP2 MLOAD PUSH2 0x180 DUP2 ADD SWAP1 SWAP3 MSTORE DUP1 SLOAD DUP3 SWAP1 DUP3 SWAP1 PUSH2 0x6CF SWAP1 PUSH2 0x255C JUMP JUMPDEST DUP1 PUSH1 0x1F ADD PUSH1 0x20 DUP1 SWAP2 DIV MUL PUSH1 0x20 ADD PUSH1 0x40 MLOAD SWAP1 DUP2 ADD PUSH1 0x40 MSTORE DUP1 SWAP3 SWAP2 SWAP1 DUP2 DUP2 MSTORE PUSH1 0x20 ADD DUP3 DUP1 SLOAD PUSH2 0x6FB SWAP1 PUSH2 0x255C JUMP JUMPDEST DUP1 ISZERO PUSH2 0x748 JUMPI DUP1 PUSH1 0x1F LT PUSH2 0x71D JUMPI PUSH2 0x100 DUP1 DUP4 SLOAD DIV MUL DUP4 MSTORE SWAP2 PUSH1 0x20 ADD SWAP2 PUSH2 0x748 JUMP JUMPDEST DUP3 ADD SWAP2 SWAP1 PUSH1 0x0 MSTORE PUSH1 0x20 PUSH1 0x0 KECCAK256 SWAP1 JUMPDEST DUP2 SLOAD DUP2 MSTORE SWAP1 PUSH1 0x1 ADD SWAP1 PUSH1 0x20 ADD DUP1 DUP4 GT PUSH2 0x72B JUMPI DUP3 SWAP1 SUB PUSH1 0x1F AND DUP3 ADD SWAP2 JUMPDEST POP POP POP POP POP DUP2 MSTORE PUSH1 0x20 ADD PUSH1 0x1 DUP3 ADD DUP1 SLOAD PUSH2 0x761 SWAP1 PUSH2 0x255C JUMP JUMPDEST DUP1 PUSH1 0x1F ADD PUSH1 0x20 DUP1 SWAP2 DIV MUL PUSH1 0x20 ADD PUSH1 0x40 MLOAD SWAP1 DUP2 ADD PUSH1 0x40 MSTORE DUP1 SWAP3 SWAP2 SWAP1 DUP2 DUP2 MSTORE PUSH1 0x20 ADD DUP3 DUP1 SLOAD PUSH2 0x78D SWAP1 PUSH2 0x255C JUMP JUMPDEST DUP1 ISZERO PUSH2 0x7DA JUMPI DUP1 PUSH1 0x1F LT PUSH2 0x7AF JUMPI PUSH2 0x100 DUP1 DUP4 SLOAD DIV MUL DUP4 MSTORE SWAP2 PUSH1 0x20 ADD SWAP2 PUSH2 0x7DA JUMP JUMPDEST DUP3 ADD SWAP2 SWAP1 PUSH1 0x0 MSTORE PUSH1 0x20 PUSH1 0x0 KECCAK256 SWAP1 JUMPDEST DUP2 SLOAD DUP2 MSTORE SWAP1 PUSH1 0x1 ADD SWAP1 PUSH1 0x20 ADD DUP1 DUP4 GT PUSH2 0x7BD JUMPI DUP3 SWAP1 SUB PUSH1 0x1F AND DUP3 ADD SWAP2 JUMPDEST POP POP POP SWAP2 DUP4 MSTORE POP POP PUSH1 0x2 DUP3 ADD SLOAD PUSH1 0x20 DUP3 ADD MSTORE PUSH1 0x3 DUP3 ADD SLOAD PUSH1 0x1 PUSH1 0x1 PUSH1 0xA0 SHL SUB SWAP1 DUP2 AND PUSH1 0x40 DUP4 ADD MSTORE PUSH1 0x4 DUP4 ADD SLOAD DUP2 AND PUSH1 0x60 DUP4 ADD MSTORE PUSH1 0x5 DUP4 ADD SLOAD AND PUSH1 0x80 DUP3 ADD MSTORE PUSH1 0x6 DUP3 ADD SLOAD PUSH1 0xA0 DUP3 ADD MSTORE PUSH1 0x7 DUP3 ADD SLOAD PUSH1 0xFF DUP1 DUP3 AND ISZERO ISZERO PUSH1 0xC0 DUP5 ADD MSTORE PUSH2 0x100 DUP1 DUP4 DIV DUP3 AND ISZERO ISZERO PUSH1 0xE0 DUP6 ADD MSTORE PUSH3 0x10000 SWAP1 SWAP3 DIV AND ISZERO ISZERO SWAP1 DUP3 ADD MSTORE PUSH1 0x8 DUP3 ADD SLOAD PUSH2 0x120 DUP3 ADD MSTORE PUSH1 0x9 SWAP1 SWAP2 ADD SLOAD PUSH2 0x140 SWAP1 SWAP2 ADD MSTORE SWAP3 SWAP2 POP POP JUMP JUMPDEST PUSH1 0x2 SLOAD PUSH1 0x1 PUSH1 0x1 PUSH1 0xA0 SHL SUB AND CALLER EQ PUSH2 0x898 JUMPI PUSH1 0x40 MLOAD PUSH3 0x461BCD PUSH1 0xE5 SHL DUP2 MSTORE PUSH1 0x4 ADD PUSH2 0x69D SWAP1 PUSH2 0x25AD JUMP JUMPDEST PUSH1 0x3 SSTORE JUMP JUMPDEST PUSH1 0x0 DUP2 DUP2 MSTORE PUSH1 0x5 PUSH1 0x20 MSTORE PUSH1 0x40 SWAP1 KECCAK256 PUSH1 0x6 ADD SLOAD CALLVALUE LT ISZERO PUSH2 0x8F4 JUMPI PUSH1 0x40 MLOAD PUSH3 0x461BCD PUSH1 0xE5 SHL DUP2 MSTORE PUSH1 0x20 PUSH1 0x4 DUP3 ADD MSTORE PUSH1 0x13 PUSH1 0x24 DUP3 ADD MSTORE PUSH19 0x125B9CDD59999A58DA595B9D08105B5BDD5B9D PUSH1 0x6A SHL PUSH1 0x44 DUP3 ADD MSTORE PUSH1 0x64 ADD PUSH2 0x69D JUMP JUMPDEST PUSH2 0x902 PUSH1 0x0 DUP1 PUSH1 0x0 DUP1 PUSH2 0x1CD5 JUMP JUMPDEST PUSH1 0x0 DUP3 DUP2 MSTORE PUSH1 0x5 PUSH1 0x20 MSTORE PUSH1 0x40 SWAP1 KECCAK256 PUSH1 0x9 ADD SLOAD GT PUSH2 0x959 JUMPI PUSH1 0x40 MLOAD PUSH3 0x461BCD PUSH1 0xE5 SHL DUP2 MSTORE PUSH1 0x20 PUSH1 0x4 DUP3 ADD MSTORE PUSH1 0x15 PUSH1 0x24 DUP3 ADD MSTORE PUSH21 0x41756374696F6E206E6F7420617661696C61626C65 PUSH1 0x58 SHL PUSH1 0x44 DUP3 ADD MSTORE PUSH1 0x64 ADD PUSH2 0x69D JUMP JUMPDEST PUSH1 0x0 DUP2 DUP2 MSTORE PUSH1 0x5 PUSH1 0x20 MSTORE PUSH1 0x40 SWAP1 KECCAK256 PUSH1 0x7 ADD SLOAD PUSH3 0x10000 SWAP1 DIV PUSH1 0xFF AND PUSH2 0x9C0 JUMPI PUSH1 0x40 MLOAD PUSH3 0x461BCD PUSH1 0xE5 SHL DUP2 MSTORE PUSH1 0x20 PUSH1 0x4 DUP3 ADD MSTORE PUSH1 0x18 PUSH1 0x24 DUP3 ADD MSTORE PUSH32 0x41756374696F6E206F6E6C7920666F722062696464696E670000000000000000 PUSH1 0x44 DUP3 ADD MSTORE PUSH1 0x64 ADD PUSH2 0x69D JUMP JUMPDEST PUSH1 0x40 DUP1 MLOAD PUSH1 0xA0 DUP2 ADD DUP3 MSTORE PUSH1 0x0 SWAP2 DUP2 ADD DUP3 SWAP1 MSTORE PUSH1 0x60 DUP2 ADD DUP3 SWAP1 MSTORE PUSH1 0x80 DUP2 ADD DUP3 SWAP1 MSTORE CALLER DUP2 MSTORE CALLVALUE PUSH1 0x20 DUP3 ADD MSTORE SWAP1 PUSH2 0x9F6 SWAP1 DUP1 DUP1 DUP1 PUSH2 0x1CD5 JUMP JUMPDEST PUSH1 0x40 DUP1 DUP4 ADD SWAP2 DUP3 MSTORE PUSH1 0x0 DUP5 DUP2 MSTORE PUSH1 0x7 PUSH1 0x20 SWAP1 DUP2 MSTORE DUP3 DUP3 KECCAK256 DUP1 SLOAD PUSH1 0x1 DUP2 DUP2 ADD DUP4 SSTORE SWAP2 DUP5 MSTORE DUP3 DUP5 KECCAK256 DUP8 MLOAD PUSH1 0x4 SWAP1 SWAP3 MUL ADD DUP1 SLOAD PUSH1 0x1 PUSH1 0x1 PUSH1 0xA0 SHL SUB SWAP1 SWAP3 AND PUSH1 0x1 PUSH1 0x1 PUSH1 0xA0 SHL SUB NOT SWAP1 SWAP3 AND SWAP2 SWAP1 SWAP2 OR DUP2 SSTORE DUP3 DUP8 ADD MLOAD SWAP2 DUP2 ADD SWAP2 SWAP1 SWAP2 SSTORE SWAP4 MLOAD PUSH1 0x2 DUP6 ADD SSTORE PUSH1 0x60 DUP6 ADD MLOAD PUSH1 0x3 SWAP1 SWAP5 ADD DUP1 SLOAD PUSH1 0x80 DUP8 ADD MLOAD ISZERO ISZERO PUSH2 0x100 MUL PUSH2 0xFF00 NOT SWAP7 ISZERO ISZERO SWAP7 SWAP1 SWAP7 AND PUSH2 0xFFFF NOT SWAP1 SWAP2 AND OR SWAP5 SWAP1 SWAP5 OR SWAP1 SWAP4 SSTORE DUP5 DUP2 MSTORE PUSH1 0x5 SWAP1 SWAP3 MSTORE DUP2 KECCAK256 PUSH1 0x8 ADD DUP1 SLOAD SWAP2 PUSH2 0xA9F DUP4 PUSH2 0x2541 JUMP JUMPDEST SWAP1 SWAP2 SSTORE POP POP POP PUSH1 0x0 SWAP1 DUP2 MSTORE PUSH1 0x5 PUSH1 0x20 DUP2 SWAP1 MSTORE PUSH1 0x40 SWAP1 SWAP2 KECCAK256 CALLVALUE PUSH1 0x6 DUP3 ADD SSTORE ADD DUP1 SLOAD PUSH1 0x1 PUSH1 0x1 PUSH1 0xA0 SHL SUB NOT AND CALLER OR SWAP1 SSTORE JUMP JUMPDEST PUSH1 0x60 PUSH1 0x0 PUSH2 0xADC PUSH1 0x1 SLOAD SWAP1 JUMP JUMPDEST SWAP1 POP PUSH1 0x0 DUP1 JUMPDEST DUP3 DUP2 LT ISZERO PUSH2 0xB34 JUMPI PUSH1 0x5 PUSH1 0x0 PUSH2 0xAF9 DUP4 PUSH1 0x1 PUSH2 0x2529 JUMP JUMPDEST DUP2 MSTORE PUSH1 0x20 DUP2 ADD SWAP2 SWAP1 SWAP2 MSTORE PUSH1 0x40 ADD PUSH1 0x0 KECCAK256 PUSH1 0x7 ADD SLOAD PUSH1 0xFF AND PUSH2 0xB22 JUMPI DUP2 PUSH2 0xB1E DUP2 PUSH2 0x2541 JUMP JUMPDEST SWAP3 POP POP JUMPDEST DUP1 PUSH2 0xB2C DUP2 PUSH2 0x2541 JUMP JUMPDEST SWAP2 POP POP PUSH2 0xAE2 JUMP JUMPDEST POP DUP1 PUSH8 0xFFFFFFFFFFFFFFFF DUP2 GT ISZERO PUSH2 0xB4E JUMPI PUSH2 0xB4E PUSH2 0x2403 JUMP JUMPDEST PUSH1 0x40 MLOAD SWAP1 DUP1 DUP3 MSTORE DUP1 PUSH1 0x20 MUL PUSH1 0x20 ADD DUP3 ADD PUSH1 0x40 MSTORE DUP1 ISZERO PUSH2 0xB87 JUMPI DUP2 PUSH1 0x20 ADD JUMPDEST PUSH2 0xB74 PUSH2 0x1FD5 JUMP JUMPDEST DUP2 MSTORE PUSH1 0x20 ADD SWAP1 PUSH1 0x1 SWAP1 SUB SWAP1 DUP2 PUSH2 0xB6C JUMPI SWAP1 POP JUMPDEST POP SWAP3 POP PUSH1 0x0 DUP1 JUMPDEST DUP4 DUP2 LT ISZERO PUSH2 0x582 JUMPI PUSH1 0x5 PUSH1 0x0 PUSH2 0xBA5 DUP4 PUSH1 0x1 PUSH2 0x2529 JUMP JUMPDEST DUP2 MSTORE PUSH1 0x20 DUP2 ADD SWAP2 SWAP1 SWAP2 MSTORE PUSH1 0x40 ADD PUSH1 0x0 KECCAK256 PUSH1 0x7 ADD SLOAD PUSH1 0xFF AND PUSH2 0xDC0 JUMPI PUSH1 0x5 PUSH1 0x0 PUSH2 0xBCF DUP4 PUSH1 0x1 PUSH2 0x2529 JUMP JUMPDEST DUP2 MSTORE PUSH1 0x20 ADD SWAP1 DUP2 MSTORE PUSH1 0x20 ADD PUSH1 0x0 KECCAK256 PUSH1 0x40 MLOAD DUP1 PUSH2 0x180 ADD PUSH1 0x40 MSTORE SWAP1 DUP2 PUSH1 0x0 DUP3 ADD DUP1 SLOAD PUSH2 0xBF9 SWAP1 PUSH2 0x255C JUMP JUMPDEST DUP1 PUSH1 0x1F ADD PUSH1 0x20 DUP1 SWAP2 DIV MUL PUSH1 0x20 ADD PUSH1 0x40 MLOAD SWAP1 DUP2 ADD PUSH1 0x40 MSTORE DUP1 SWAP3 SWAP2 SWAP1 DUP2 DUP2 MSTORE PUSH1 0x20 ADD DUP3 DUP1 SLOAD PUSH2 0xC25 SWAP1 PUSH2 0x255C JUMP JUMPDEST DUP1 ISZERO PUSH2 0xC72 JUMPI DUP1 PUSH1 0x1F LT PUSH2 0xC47 JUMPI PUSH2 0x100 DUP1 DUP4 SLOAD DIV MUL DUP4 MSTORE SWAP2 PUSH1 0x20 ADD SWAP2 PUSH2 0xC72 JUMP JUMPDEST DUP3 ADD SWAP2 SWAP1 PUSH1 0x0 MSTORE PUSH1 0x20 PUSH1 0x0 KECCAK256 SWAP1 JUMPDEST DUP2 SLOAD DUP2 MSTORE SWAP1 PUSH1 0x1 ADD SWAP1 PUSH1 0x20 ADD DUP1 DUP4 GT PUSH2 0xC55 JUMPI DUP3 SWAP1 SUB PUSH1 0x1F AND DUP3 ADD SWAP2 JUMPDEST POP POP POP POP POP DUP2 MSTORE PUSH1 0x20 ADD PUSH1 0x1 DUP3 ADD DUP1 SLOAD PUSH2 0xC8B SWAP1 PUSH2 0x255C JUMP JUMPDEST DUP1 PUSH1 0x1F ADD PUSH1 0x20 DUP1 SWAP2 DIV MUL PUSH1 0x20 ADD PUSH1 0x40 MLOAD SWAP1 DUP2 ADD PUSH1 0x40 MSTORE DUP1 SWAP3 SWAP2 SWAP1 DUP2 DUP2 MSTORE PUSH1 0x20 ADD DUP3 DUP1 SLOAD PUSH2 0xCB7 SWAP1 PUSH2 0x255C JUMP JUMPDEST DUP1 ISZERO PUSH2 0xD04 JUMPI DUP1 PUSH1 0x1F LT PUSH2 0xCD9 JUMPI PUSH2 0x100 DUP1 DUP4 SLOAD DIV MUL DUP4 MSTORE SWAP2 PUSH1 0x20 ADD SWAP2 PUSH2 0xD04 JUMP JUMPDEST DUP3 ADD SWAP2 SWAP1 PUSH1 0x0 MSTORE PUSH1 0x20 PUSH1 0x0 KECCAK256 SWAP1 JUMPDEST DUP2 SLOAD DUP2 MSTORE SWAP1 PUSH1 0x1 ADD SWAP1 PUSH1 0x20 ADD DUP1 DUP4 GT PUSH2 0xCE7 JUMPI DUP3 SWAP1 SUB PUSH1 0x1F AND DUP3 ADD SWAP2 JUMPDEST POP POP POP SWAP2 DUP4 MSTORE POP POP PUSH1 0x2 DUP3 ADD SLOAD PUSH1 0x20 DUP3 ADD MSTORE PUSH1 0x3 DUP3 ADD SLOAD PUSH1 0x1 PUSH1 0x1 PUSH1 0xA0 SHL SUB SWAP1 DUP2 AND PUSH1 0x40 DUP4 ADD MSTORE PUSH1 0x4 DUP4 ADD SLOAD DUP2 AND PUSH1 0x60 DUP4 ADD MSTORE PUSH1 0x5 DUP4 ADD SLOAD AND PUSH1 0x80 DUP3 ADD MSTORE PUSH1 0x6 DUP3 ADD SLOAD PUSH1 0xA0 DUP3 ADD MSTORE PUSH1 0x7 DUP3 ADD SLOAD PUSH1 0xFF DUP1 DUP3 AND ISZERO ISZERO PUSH1 0xC0 DUP5 ADD MSTORE PUSH2 0x100 DUP1 DUP4 DIV DUP3 AND ISZERO ISZERO PUSH1 0xE0 DUP6 ADD MSTORE PUSH3 0x10000 SWAP1 SWAP3 DIV AND ISZERO ISZERO SWAP1 DUP3 ADD MSTORE PUSH1 0x8 DUP3 ADD SLOAD PUSH2 0x120 DUP3 ADD MSTORE PUSH1 0x9 SWAP1 SWAP2 ADD SLOAD PUSH2 0x140 SWAP1 SWAP2 ADD MSTORE DUP6 MLOAD DUP7 SWAP1 DUP5 SWAP1 DUP2 LT PUSH2 0xDA6 JUMPI PUSH2 0xDA6 PUSH2 0x2597 JUMP JUMPDEST PUSH1 0x20 MUL PUSH1 0x20 ADD ADD DUP2 SWAP1 MSTORE POP DUP2 DUP1 PUSH2 0xDBC SWAP1 PUSH2 0x2541 JUMP JUMPDEST SWAP3 POP POP JUMPDEST DUP1 PUSH2 0xDCA DUP2 PUSH2 0x2541 JUMP JUMPDEST SWAP2 POP POP PUSH2 0xB8E JUMP JUMPDEST PUSH1 0x0 DUP7 DUP2 MSTORE PUSH1 0x5 PUSH1 0x20 MSTORE PUSH1 0x40 SWAP1 KECCAK256 PUSH1 0x4 ADD SLOAD PUSH1 0x1 PUSH1 0x1 PUSH1 0xA0 SHL SUB AND CALLER EQ PUSH2 0xE0B JUMPI PUSH1 0x40 MLOAD PUSH3 0x461BCD PUSH1 0xE5 SHL DUP2 MSTORE PUSH1 0x4 ADD PUSH2 0x69D SWAP1 PUSH2 0x25AD JUMP JUMPDEST PUSH1 0x0 DUP7 DUP2 MSTORE PUSH1 0x5 PUSH1 0x20 MSTORE PUSH1 0x40 SWAP1 KECCAK256 PUSH1 0x8 ADD SLOAD ISZERO PUSH2 0xE6A JUMPI PUSH1 0x40 MLOAD PUSH3 0x461BCD PUSH1 0xE5 SHL DUP2 MSTORE PUSH1 0x20 PUSH1 0x4 DUP3 ADD MSTORE PUSH1 0x1F PUSH1 0x24 DUP3 ADD MSTORE PUSH32 0x57696E6E65722073686F756C6420636C61696D207072697A6520666972737400 PUSH1 0x44 DUP3 ADD MSTORE PUSH1 0x64 ADD PUSH2 0x69D JUMP JUMPDEST PUSH1 0x0 DUP7 DUP2 MSTORE PUSH1 0x5 PUSH1 0x20 MSTORE PUSH1 0x40 DUP2 KECCAK256 PUSH1 0x8 DUP2 ADD SWAP2 SWAP1 SWAP2 SSTORE PUSH1 0x7 ADD DUP1 SLOAD PUSH2 0x100 PUSH3 0xFFFFFF NOT SWAP1 SWAP2 AND PUSH3 0x10000 DUP9 ISZERO ISZERO MUL OR OR SWAP1 SSTORE PUSH2 0xEA8 DUP5 DUP5 DUP5 DUP5 PUSH2 0x1CD5 JUMP JUMPDEST PUSH1 0x0 SWAP7 DUP8 MSTORE PUSH1 0x5 PUSH1 0x20 MSTORE PUSH1 0x40 SWAP1 SWAP7 KECCAK256 PUSH1 0x9 ADD SWAP6 SWAP1 SWAP6 SSTORE POP POP POP POP POP JUMP JUMPDEST PUSH1 0x0 DUP3 DUP2 MSTORE PUSH1 0x5 PUSH1 0x20 MSTORE PUSH1 0x40 SWAP1 KECCAK256 PUSH1 0x4 ADD SLOAD PUSH1 0x1 PUSH1 0x1 PUSH1 0xA0 SHL SUB AND CALLER EQ PUSH2 0xEFE JUMPI PUSH1 0x40 MLOAD PUSH3 0x461BCD PUSH1 0xE5 SHL DUP2 MSTORE PUSH1 0x4 ADD PUSH2 0x69D SWAP1 PUSH2 0x25AD JUMP JUMPDEST PUSH1 0x0 DUP3 DUP2 MSTORE PUSH1 0x5 PUSH1 0x20 MSTORE PUSH1 0x40 DUP2 KECCAK256 PUSH1 0x9 ADD SLOAD SWAP1 PUSH2 0xF1D SWAP1 DUP1 DUP1 DUP1 PUSH2 0x1CD5 JUMP JUMPDEST GT PUSH2 0xF5F JUMPI PUSH1 0x40 MLOAD PUSH3 0x461BCD PUSH1 0xE5 SHL DUP2 MSTORE PUSH1 0x20 PUSH1 0x4 DUP3 ADD MSTORE PUSH1 0x12 PUSH1 0x24 DUP3 ADD MSTORE PUSH18 0x41756374696F6E207374696C6C204C697665 PUSH1 0x70 SHL PUSH1 0x44 DUP3 ADD MSTORE PUSH1 0x64 ADD PUSH2 0x69D JUMP JUMPDEST PUSH1 0x0 DUP2 GT PUSH2 0xFAF JUMPI PUSH1 0x40 MLOAD PUSH3 0x461BCD PUSH1 0xE5 SHL DUP2 MSTORE PUSH1 0x20 PUSH1 0x4 DUP3 ADD MSTORE PUSH1 0x1F PUSH1 0x24 DUP3 ADD MSTORE PUSH32 0x5072696365206D7573742062652067726561746572207468616E207A65726F00 PUSH1 0x44 DUP3 ADD MSTORE PUSH1 0x64 ADD PUSH2 0x69D JUMP JUMPDEST PUSH1 0x0 SWAP2 DUP3 MSTORE PUSH1 0x5 PUSH1 0x20 MSTORE PUSH1 0x40 SWAP1 SWAP2 KECCAK256 PUSH1 0x6 ADD SSTORE JUMP JUMPDEST PUSH1 0x60 PUSH1 0x0 PUSH2 0xFD1 PUSH1 0x1 SLOAD SWAP1 JUMP JUMPDEST SWAP1 POP PUSH1 0x0 DUP1 JUMPDEST DUP3 DUP2 LT ISZERO PUSH2 0x1032 JUMPI CALLER PUSH1 0x5 PUSH1 0x0 PUSH2 0xFEF DUP5 PUSH1 0x1 PUSH2 0x2529 JUMP JUMPDEST DUP2 MSTORE PUSH1 0x20 DUP2 ADD SWAP2 SWAP1 SWAP2 MSTORE PUSH1 0x40 ADD PUSH1 0x0 KECCAK256 PUSH1 0x4 ADD SLOAD PUSH1 0x1 PUSH1 0x1 PUSH1 0xA0 SHL SUB AND EQ ISZERO PUSH2 0x1020 JUMPI DUP2 PUSH2 0x101C DUP2 PUSH2 0x2541 JUMP JUMPDEST SWAP3 POP POP JUMPDEST DUP1 PUSH2 0x102A DUP2 PUSH2 0x2541 JUMP JUMPDEST SWAP2 POP POP PUSH2 0xFD7 JUMP JUMPDEST POP DUP1 PUSH8 0xFFFFFFFFFFFFFFFF DUP2 GT ISZERO PUSH2 0x104C JUMPI PUSH2 0x104C PUSH2 0x2403 JUMP JUMPDEST PUSH1 0x40 MLOAD SWAP1 DUP1 DUP3 MSTORE DUP1 PUSH1 0x20 MUL PUSH1 0x20 ADD DUP3 ADD PUSH1 0x40 MSTORE DUP1 ISZERO PUSH2 0x1085 JUMPI DUP2 PUSH1 0x20 ADD JUMPDEST PUSH2 0x1072 PUSH2 0x1FD5 JUMP JUMPDEST DUP2 MSTORE PUSH1 0x20 ADD SWAP1 PUSH1 0x1 SWAP1 SUB SWAP1 DUP2 PUSH2 0x106A JUMPI SWAP1 POP JUMPDEST POP SWAP3 POP PUSH1 0x0 DUP1 JUMPDEST DUP4 DUP2 LT ISZERO PUSH2 0x582 JUMPI CALLER PUSH1 0x5 PUSH1 0x0 PUSH2 0x10A4 DUP5 PUSH1 0x1 PUSH2 0x2529 JUMP JUMPDEST DUP2 MSTORE PUSH1 0x20 DUP2 ADD SWAP2 SWAP1 SWAP2 MSTORE PUSH1 0x40 ADD PUSH1 0x0 KECCAK256 PUSH1 0x4 ADD SLOAD PUSH1 0x1 PUSH1 0x1 PUSH1 0xA0 SHL SUB AND EQ ISZERO PUSH2 0x12C7 JUMPI PUSH1 0x5 PUSH1 0x0 PUSH2 0x10D6 DUP4 PUSH1 0x1 PUSH2 0x2529 JUMP JUMPDEST DUP2 MSTORE PUSH1 0x20 ADD SWAP1 DUP2 MSTORE PUSH1 0x20 ADD PUSH1 0x0 KECCAK256 PUSH1 0x40 MLOAD DUP1 PUSH2 0x180 ADD PUSH1 0x40 MSTORE SWAP1 DUP2 PUSH1 0x0 DUP3 ADD DUP1 SLOAD PUSH2 0x1100 SWAP1 PUSH2 0x255C JUMP JUMPDEST DUP1 PUSH1 0x1F ADD PUSH1 0x20 DUP1 SWAP2 DIV MUL PUSH1 0x20 ADD PUSH1 0x40 MLOAD SWAP1 DUP2 ADD PUSH1 0x40 MSTORE DUP1 SWAP3 SWAP2 SWAP1 DUP2 DUP2 MSTORE PUSH1 0x20 ADD DUP3 DUP1 SLOAD PUSH2 0x112C SWAP1 PUSH2 0x255C JUMP JUMPDEST DUP1 ISZERO PUSH2 0x1179 JUMPI DUP1 PUSH1 0x1F LT PUSH2 0x114E JUMPI PUSH2 0x100 DUP1 DUP4 SLOAD DIV MUL DUP4 MSTORE SWAP2 PUSH1 0x20 ADD SWAP2 PUSH2 0x1179 JUMP JUMPDEST DUP3 ADD SWAP2 SWAP1 PUSH1 0x0 MSTORE PUSH1 0x20 PUSH1 0x0 KECCAK256 SWAP1 JUMPDEST DUP2 SLOAD DUP2 MSTORE SWAP1 PUSH1 0x1 ADD SWAP1 PUSH1 0x20 ADD DUP1 DUP4 GT PUSH2 0x115C JUMPI DUP3 SWAP1 SUB PUSH1 0x1F AND DUP3 ADD SWAP2 JUMPDEST POP POP POP POP POP DUP2 MSTORE PUSH1 0x20 ADD PUSH1 0x1 DUP3 ADD DUP1 SLOAD PUSH2 0x1192 SWAP1 PUSH2 0x255C JUMP JUMPDEST DUP1 PUSH1 0x1F ADD PUSH1 0x20 DUP1 SWAP2 DIV MUL PUSH1 0x20 ADD PUSH1 0x40 MLOAD SWAP1 DUP2 ADD PUSH1 0x40 MSTORE DUP1 SWAP3 SWAP2 SWAP1 DUP2 DUP2 MSTORE PUSH1 0x20 ADD DUP3 DUP1 SLOAD PUSH2 0x11BE SWAP1 PUSH2 0x255C JUMP JUMPDEST DUP1 ISZERO PUSH2 0x120B JUMPI DUP1 PUSH1 0x1F LT PUSH2 0x11E0 JUMPI PUSH2 0x100 DUP1 DUP4 SLOAD DIV MUL DUP4 MSTORE SWAP2 PUSH1 0x20 ADD SWAP2 PUSH2 0x120B JUMP JUMPDEST DUP3 ADD SWAP2 SWAP1 PUSH1 0x0 MSTORE PUSH1 0x20 PUSH1 0x0 KECCAK256 SWAP1 JUMPDEST DUP2 SLOAD DUP2 MSTORE SWAP1 PUSH1 0x1 ADD SWAP1 PUSH1 0x20 ADD DUP1 DUP4 GT PUSH2 0x11EE JUMPI DUP3 SWAP1 SUB PUSH1 0x1F AND DUP3 ADD SWAP2 JUMPDEST POP POP POP SWAP2 DUP4 MSTORE POP POP PUSH1 0x2 DUP3 ADD SLOAD PUSH1 0x20 DUP3 ADD MSTORE PUSH1 0x3 DUP3 ADD SLOAD PUSH1 0x1 PUSH1 0x1 PUSH1 0xA0 SHL SUB SWAP1 DUP2 AND PUSH1 0x40 DUP4 ADD MSTORE PUSH1 0x4 DUP4 ADD SLOAD DUP2 AND PUSH1 0x60 DUP4 ADD MSTORE PUSH1 0x5 DUP4 ADD SLOAD AND PUSH1 0x80 DUP3 ADD MSTORE PUSH1 0x6 DUP3 ADD SLOAD PUSH1 0xA0 DUP3 ADD MSTORE PUSH1 0x7 DUP3 ADD SLOAD PUSH1 0xFF DUP1 DUP3 AND ISZERO ISZERO PUSH1 0xC0 DUP5 ADD MSTORE PUSH2 0x100 DUP1 DUP4 DIV DUP3 AND ISZERO ISZERO PUSH1 0xE0 DUP6 ADD MSTORE PUSH3 0x10000 SWAP1 SWAP3 DIV AND ISZERO ISZERO SWAP1 DUP3 ADD MSTORE PUSH1 0x8 DUP3 ADD SLOAD PUSH2 0x120 DUP3 ADD MSTORE PUSH1 0x9 SWAP1 SWAP2 ADD SLOAD PUSH2 0x140 SWAP1 SWAP2 ADD MSTORE DUP6 MLOAD DUP7 SWAP1 DUP5 SWAP1 DUP2 LT PUSH2 0x12AD JUMPI PUSH2 0x12AD PUSH2 0x2597 JUMP JUMPDEST PUSH1 0x20 MUL PUSH1 0x20 ADD ADD DUP2 SWAP1 MSTORE POP DUP2 DUP1 PUSH2 0x12C3 SWAP1 PUSH2 0x2541 JUMP JUMPDEST SWAP3 POP POP JUMPDEST DUP1 PUSH2 0x12D1 DUP2 PUSH2 0x2541 JUMP JUMPDEST SWAP2 POP POP PUSH2 0x108C JUMP JUMPDEST PUSH1 0x60 PUSH1 0x0 PUSH2 0x12E6 PUSH1 0x1 SLOAD SWAP1 JUMP JUMPDEST SWAP1 POP DUP1 PUSH8 0xFFFFFFFFFFFFFFFF DUP2 GT ISZERO PUSH2 0x1301 JUMPI PUSH2 0x1301 PUSH2 0x2403 JUMP JUMPDEST PUSH1 0x40 MLOAD SWAP1 DUP1 DUP3 MSTORE DUP1 PUSH1 0x20 MUL PUSH1 0x20 ADD DUP3 ADD PUSH1 0x40 MSTORE DUP1 ISZERO PUSH2 0x133A JUMPI DUP2 PUSH1 0x20 ADD JUMPDEST PUSH2 0x1327 PUSH2 0x1FD5 JUMP JUMPDEST DUP2 MSTORE PUSH1 0x20 ADD SWAP1 PUSH1 0x1 SWAP1 SUB SWAP1 DUP2 PUSH2 0x131F JUMPI SWAP1 POP JUMPDEST POP SWAP2 POP PUSH1 0x0 JUMPDEST DUP2 DUP2 LT ISZERO PUSH2 0x154C JUMPI PUSH1 0x5 PUSH1 0x0 PUSH2 0x1357 DUP4 PUSH1 0x1 PUSH2 0x2529 JUMP JUMPDEST DUP2 MSTORE PUSH1 0x20 ADD SWAP1 DUP2 MSTORE PUSH1 0x20 ADD PUSH1 0x0 KECCAK256 PUSH1 0x40 MLOAD DUP1 PUSH2 0x180 ADD PUSH1 0x40 MSTORE SWAP1 DUP2 PUSH1 0x0 DUP3 ADD DUP1 SLOAD PUSH2 0x1381 SWAP1 PUSH2 0x255C JUMP JUMPDEST DUP1 PUSH1 0x1F ADD PUSH1 0x20 DUP1 SWAP2 DIV MUL PUSH1 0x20 ADD PUSH1 0x40 MLOAD SWAP1 DUP2 ADD PUSH1 0x40 MSTORE DUP1 SWAP3 SWAP2 SWAP1 DUP2 DUP2 MSTORE PUSH1 0x20 ADD DUP3 DUP1 SLOAD PUSH2 0x13AD SWAP1 PUSH2 0x255C JUMP JUMPDEST DUP1 ISZERO PUSH2 0x13FA JUMPI DUP1 PUSH1 0x1F LT PUSH2 0x13CF JUMPI PUSH2 0x100 DUP1 DUP4 SLOAD DIV MUL DUP4 MSTORE SWAP2 PUSH1 0x20 ADD SWAP2 PUSH2 0x13FA JUMP JUMPDEST DUP3 ADD SWAP2 SWAP1 PUSH1 0x0 MSTORE PUSH1 0x20 PUSH1 0x0 KECCAK256 SWAP1 JUMPDEST DUP2 SLOAD DUP2 MSTORE SWAP1 PUSH1 0x1 ADD SWAP1 PUSH1 0x20 ADD DUP1 DUP4 GT PUSH2 0x13DD JUMPI DUP3 SWAP1 SUB PUSH1 0x1F AND DUP3 ADD SWAP2 JUMPDEST POP POP POP POP POP DUP2 MSTORE PUSH1 0x20 ADD PUSH1 0x1 DUP3 ADD DUP1 SLOAD PUSH2 0x1413 SWAP1 PUSH2 0x255C JUMP JUMPDEST DUP1 PUSH1 0x1F ADD PUSH1 0x20 DUP1 SWAP2 DIV MUL PUSH1 0x20 ADD PUSH1 0x40 MLOAD SWAP1 DUP2 ADD PUSH1 0x40 MSTORE DUP1 SWAP3 SWAP2 SWAP1 DUP2 DUP2 MSTORE PUSH1 0x20 ADD DUP3 DUP1 SLOAD PUSH2 0x143F SWAP1 PUSH2 0x255C JUMP JUMPDEST DUP1 ISZERO PUSH2 0x148C JUMPI DUP1 PUSH1 0x1F LT PUSH2 0x1461 JUMPI PUSH2 0x100 DUP1 DUP4 SLOAD DIV MUL DUP4 MSTORE SWAP2 PUSH1 0x20 ADD SWAP2 PUSH2 0x148C JUMP JUMPDEST DUP3 ADD SWAP2 SWAP1 PUSH1 0x0 MSTORE PUSH1 0x20 PUSH1 0x0 KECCAK256 SWAP1 JUMPDEST DUP2 SLOAD DUP2 MSTORE SWAP1 PUSH1 0x1 ADD SWAP1 PUSH1 0x20 ADD DUP1 DUP4 GT PUSH2 0x146F JUMPI DUP3 SWAP1 SUB PUSH1 0x1F AND DUP3 ADD SWAP2 JUMPDEST POP POP POP SWAP2 DUP4 MSTORE POP POP PUSH1 0x2 DUP3 ADD SLOAD PUSH1 0x20 DUP3 ADD MSTORE PUSH1 0x3 DUP3 ADD SLOAD PUSH1 0x1 PUSH1 0x1 PUSH1 0xA0 SHL SUB SWAP1 DUP2 AND PUSH1 0x40 DUP4 ADD MSTORE PUSH1 0x4 DUP4 ADD SLOAD DUP2 AND PUSH1 0x60 DUP4 ADD MSTORE PUSH1 0x5 DUP4 ADD SLOAD AND PUSH1 0x80 DUP3 ADD MSTORE PUSH1 0x6 DUP3 ADD SLOAD PUSH1 0xA0 DUP3 ADD MSTORE PUSH1 0x7 DUP3 ADD SLOAD PUSH1 0xFF DUP1 DUP3 AND ISZERO ISZERO PUSH1 0xC0 DUP5 ADD MSTORE PUSH2 0x100 DUP1 DUP4 DIV DUP3 AND ISZERO ISZERO PUSH1 0xE0 DUP6 ADD MSTORE PUSH3 0x10000 SWAP1 SWAP3 DIV AND ISZERO ISZERO SWAP1 DUP3 ADD MSTORE PUSH1 0x8 DUP3 ADD SLOAD PUSH2 0x120 DUP3 ADD MSTORE PUSH1 0x9 SWAP1 SWAP2 ADD SLOAD PUSH2 0x140 SWAP1 SWAP2 ADD MSTORE DUP4 MLOAD DUP5 SWAP1 DUP4 SWAP1 DUP2 LT PUSH2 0x152E JUMPI PUSH2 0x152E PUSH2 0x2597 JUMP JUMPDEST PUSH1 0x20 MUL PUSH1 0x20 ADD ADD DUP2 SWAP1 MSTORE POP DUP1 DUP1 PUSH2 0x1544 SWAP1 PUSH2 0x2541 JUMP JUMPDEST SWAP2 POP POP PUSH2 0x1340 JUMP JUMPDEST POP POP SWAP1 JUMP JUMPDEST PUSH1 0x60 PUSH1 0x0 PUSH2 0x155E PUSH1 0x1 SLOAD SWAP1 JUMP JUMPDEST SWAP1 POP PUSH1 0x0 DUP1 JUMPDEST DUP3 DUP2 LT ISZERO PUSH2 0x15C1 JUMPI PUSH2 0x157A PUSH1 0x0 DUP1 PUSH1 0x0 DUP1 PUSH2 0x1CD5 JUMP JUMPDEST PUSH1 0x5 PUSH1 0x0 PUSH2 0x1589 DUP5 PUSH1 0x1 PUSH2 0x2529 JUMP JUMPDEST DUP2 MSTORE PUSH1 0x20 ADD SWAP1 DUP2 MSTORE PUSH1 0x20 ADD PUSH1 0x0 KECCAK256 PUSH1 0x9 ADD SLOAD GT ISZERO PUSH2 0x15AF JUMPI DUP2 PUSH2 0x15AB DUP2 PUSH2 0x2541 JUMP JUMPDEST SWAP3 POP POP JUMPDEST DUP1 PUSH2 0x15B9 DUP2 PUSH2 0x2541 JUMP JUMPDEST SWAP2 POP POP PUSH2 0x1564 JUMP JUMPDEST POP DUP1 PUSH8 0xFFFFFFFFFFFFFFFF DUP2 GT ISZERO PUSH2 0x15DB JUMPI PUSH2 0x15DB PUSH2 0x2403 JUMP JUMPDEST PUSH1 0x40 MLOAD SWAP1 DUP1 DUP3 MSTORE DUP1 PUSH1 0x20 MUL PUSH1 0x20 ADD DUP3 ADD PUSH1 0x40 MSTORE DUP1 ISZERO PUSH2 0x1614 JUMPI DUP2 PUSH1 0x20 ADD JUMPDEST PUSH2 0x1601 PUSH2 0x1FD5 JUMP JUMPDEST DUP2 MSTORE PUSH1 0x20 ADD SWAP1 PUSH1 0x1 SWAP1 SUB SWAP1 DUP2 PUSH2 0x15F9 JUMPI SWAP1 POP JUMPDEST POP SWAP3 POP PUSH1 0x0 DUP1 JUMPDEST DUP4 DUP2 LT ISZERO PUSH2 0x582 JUMPI PUSH2 0x1631 PUSH1 0x0 DUP1 PUSH1 0x0 DUP1 PUSH2 0x1CD5 JUMP JUMPDEST PUSH1 0x5 PUSH1 0x0 PUSH2 0x1640 DUP5 PUSH1 0x1 PUSH2 0x2529 JUMP JUMPDEST DUP2 MSTORE PUSH1 0x20 ADD SWAP1 DUP2 MSTORE PUSH1 0x20 ADD PUSH1 0x0 KECCAK256 PUSH1 0x9 ADD SLOAD GT ISZERO PUSH2 0x1858 JUMPI PUSH1 0x5 PUSH1 0x0 PUSH2 0x1667 DUP4 PUSH1 0x1 PUSH2 0x2529 JUMP JUMPDEST DUP2 MSTORE PUSH1 0x20 ADD SWAP1 DUP2 MSTORE PUSH1 0x20 ADD PUSH1 0x0 KECCAK256 PUSH1 0x40 MLOAD DUP1 PUSH2 0x180 ADD PUSH1 0x40 MSTORE SWAP1 DUP2 PUSH1 0x0 DUP3 ADD DUP1 SLOAD PUSH2 0x1691 SWAP1 PUSH2 0x255C JUMP JUMPDEST DUP1 PUSH1 0x1F ADD PUSH1 0x20 DUP1 SWAP2 DIV MUL PUSH1 0x20 ADD PUSH1 0x40 MLOAD SWAP1 DUP2 ADD PUSH1 0x40 MSTORE DUP1 SWAP3 SWAP2 SWAP1 DUP2 DUP2 MSTORE PUSH1 0x20 ADD DUP3 DUP1 SLOAD PUSH2 0x16BD SWAP1 PUSH2 0x255C JUMP JUMPDEST DUP1 ISZERO PUSH2 0x170A JUMPI DUP1 PUSH1 0x1F LT PUSH2 0x16DF JUMPI PUSH2 0x100 DUP1 DUP4 SLOAD DIV MUL DUP4 MSTORE SWAP2 PUSH1 0x20 ADD SWAP2 PUSH2 0x170A JUMP JUMPDEST DUP3 ADD SWAP2 SWAP1 PUSH1 0x0 MSTORE PUSH1 0x20 PUSH1 0x0 KECCAK256 SWAP1 JUMPDEST DUP2 SLOAD DUP2 MSTORE SWAP1 PUSH1 0x1 ADD SWAP1 PUSH1 0x20 ADD DUP1 DUP4 GT PUSH2 0x16ED JUMPI DUP3 SWAP1 SUB PUSH1 0x1F AND DUP3 ADD SWAP2 JUMPDEST POP POP POP POP POP DUP2 MSTORE PUSH1 0x20 ADD PUSH1 0x1 DUP3 ADD DUP1 SLOAD PUSH2 0x1723 SWAP1 PUSH2 0x255C JUMP JUMPDEST DUP1 PUSH1 0x1F ADD PUSH1 0x20 DUP1 SWAP2 DIV MUL PUSH1 0x20 ADD PUSH1 0x40 MLOAD SWAP1 DUP2 ADD PUSH1 0x40 MSTORE DUP1 SWAP3 SWAP2 SWAP1 DUP2 DUP2 MSTORE PUSH1 0x20 ADD DUP3 DUP1 SLOAD PUSH2 0x174F SWAP1 PUSH2 0x255C JUMP JUMPDEST DUP1 ISZERO PUSH2 0x179C JUMPI DUP1 PUSH1 0x1F LT PUSH2 0x1771 JUMPI PUSH2 0x100 DUP1 DUP4 SLOAD DIV MUL DUP4 MSTORE SWAP2 PUSH1 0x20 ADD SWAP2 PUSH2 0x179C JUMP JUMPDEST DUP3 ADD SWAP2 SWAP1 PUSH1 0x0 MSTORE PUSH1 0x20 PUSH1 0x0 KECCAK256 SWAP1 JUMPDEST DUP2 SLOAD DUP2 MSTORE SWAP1 PUSH1 0x1 ADD SWAP1 PUSH1 0x20 ADD DUP1 DUP4 GT PUSH2 0x177F JUMPI DUP3 SWAP1 SUB PUSH1 0x1F AND DUP3 ADD SWAP2 JUMPDEST POP POP POP SWAP2 DUP4 MSTORE POP POP PUSH1 0x2 DUP3 ADD SLOAD PUSH1 0x20 DUP3 ADD MSTORE PUSH1 0x3 DUP3 ADD SLOAD PUSH1 0x1 PUSH1 0x1 PUSH1 0xA0 SHL SUB SWAP1 DUP2 AND PUSH1 0x40 DUP4 ADD MSTORE PUSH1 0x4 DUP4 ADD SLOAD DUP2 AND PUSH1 0x60 DUP4 ADD MSTORE PUSH1 0x5 DUP4 ADD SLOAD AND PUSH1 0x80 DUP3 ADD MSTORE PUSH1 0x6 DUP3 ADD SLOAD PUSH1 0xA0 DUP3 ADD MSTORE PUSH1 0x7 DUP3 ADD SLOAD PUSH1 0xFF DUP1 DUP3 AND ISZERO ISZERO PUSH1 0xC0 DUP5 ADD MSTORE PUSH2 0x100 DUP1 DUP4 DIV DUP3 AND ISZERO ISZERO PUSH1 0xE0 DUP6 ADD MSTORE PUSH3 0x10000 SWAP1 SWAP3 DIV AND ISZERO ISZERO SWAP1 DUP3 ADD MSTORE PUSH1 0x8 DUP3 ADD SLOAD PUSH2 0x120 DUP3 ADD MSTORE PUSH1 0x9 SWAP1 SWAP2 ADD SLOAD PUSH2 0x140 SWAP1 SWAP2 ADD MSTORE DUP6 MLOAD DUP7 SWAP1 DUP5 SWAP1 DUP2 LT PUSH2 0x183E JUMPI PUSH2 0x183E PUSH2 0x2597 JUMP JUMPDEST PUSH1 0x20 MUL PUSH1 0x20 ADD ADD DUP2 SWAP1 MSTORE POP DUP2 DUP1 PUSH2 0x1854 SWAP1 PUSH2 0x2541 JUMP JUMPDEST SWAP3 POP POP JUMPDEST DUP1 PUSH2 0x1862 DUP2 PUSH2 0x2541 JUMP JUMPDEST SWAP2 POP POP PUSH2 0x161B JUMP JUMPDEST PUSH2 0x1872 PUSH2 0x1D37 JUMP JUMPDEST PUSH1 0x0 DUP2 GT PUSH2 0x18D5 JUMPI PUSH1 0x40 MLOAD PUSH3 0x461BCD PUSH1 0xE5 SHL DUP2 MSTORE PUSH1 0x20 PUSH1 0x4 DUP3 ADD MSTORE PUSH1 0x2A PUSH1 0x24 DUP3 ADD MSTORE PUSH32 0x53616C6573207072696365206D7573742062652067726561746572207468616E PUSH1 0x44 DUP3 ADD MSTORE PUSH10 0x10181032BA3432B93997 PUSH1 0xB1 SHL PUSH1 0x64 DUP3 ADD MSTORE PUSH1 0x84 ADD PUSH2 0x69D JUMP JUMPDEST PUSH1 0x3 SLOAD CALLVALUE LT ISZERO PUSH2 0x1936 JUMPI PUSH1 0x40 MLOAD PUSH3 0x461BCD PUSH1 0xE5 SHL DUP2 MSTORE PUSH1 0x20 PUSH1 0x4 DUP3 ADD MSTORE PUSH1 0x26 PUSH1 0x24 DUP3 ADD MSTORE PUSH32 0x5072696365206D75737420626520757020746F20746865206C697374696E6720 PUSH1 0x44 DUP3 ADD MSTORE PUSH6 0x383934B1B297 PUSH1 0xD1 SHL PUSH1 0x64 DUP3 ADD MSTORE PUSH1 0x84 ADD PUSH2 0x69D JUMP JUMPDEST PUSH1 0x0 PUSH2 0x1941 PUSH1 0x1 SLOAD SWAP1 JUMP JUMPDEST SWAP1 POP PUSH2 0x194B PUSH2 0x1FD5 JUMP JUMPDEST PUSH1 0x40 DUP2 ADD DUP3 SWAP1 MSTORE DUP5 DUP2 MSTORE PUSH1 0x20 DUP2 ADD DUP5 SWAP1 MSTORE PUSH1 0xC0 DUP2 ADD DUP4 SWAP1 MSTORE PUSH2 0x1970 PUSH1 0x0 DUP1 DUP1 DUP1 PUSH2 0x1CD5 JUMP JUMPDEST PUSH2 0x160 DUP3 ADD MSTORE CALLER PUSH1 0x60 DUP3 ADD DUP2 SWAP1 MSTORE PUSH1 0x80 DUP3 ADD MSTORE PUSH1 0x0 DUP3 DUP2 MSTORE PUSH1 0x5 PUSH1 0x20 SWAP1 DUP2 MSTORE PUSH1 0x40 SWAP1 SWAP2 KECCAK256 DUP3 MLOAD DUP1 MLOAD DUP5 SWAP4 PUSH2 0x19A8 SWAP3 DUP5 SWAP3 SWAP2 ADD SWAP1 PUSH2 0x2057 JUMP JUMPDEST POP PUSH1 0x20 DUP3 DUP2 ADD MLOAD DUP1 MLOAD PUSH2 0x19C1 SWAP3 PUSH1 0x1 DUP6 ADD SWAP3 ADD SWAP1 PUSH2 0x2057 JUMP JUMPDEST POP PUSH1 0x40 DUP3 DUP2 ADD MLOAD PUSH1 0x2 DUP4 DUP2 ADD SWAP2 SWAP1 SWAP2 SSTORE PUSH1 0x60 DUP5 ADD MLOAD PUSH1 0x3 DUP1 DUP6 ADD DUP1 SLOAD PUSH1 0x1 PUSH1 0x1 PUSH1 0xA0 SHL SUB NOT SWAP1 DUP2 AND PUSH1 0x1 PUSH1 0x1 PUSH1 0xA0 SHL SUB SWAP5 DUP6 AND OR SWAP1 SWAP2 SSTORE PUSH1 0x80 DUP8 ADD MLOAD PUSH1 0x4 DUP8 ADD DUP1 SLOAD DUP4 AND SWAP2 DUP6 AND SWAP2 SWAP1 SWAP2 OR SWAP1 SSTORE PUSH1 0xA0 DUP8 ADD MLOAD PUSH1 0x5 DUP8 ADD DUP1 SLOAD SWAP1 SWAP3 AND SWAP1 DUP5 AND OR SWAP1 SSTORE PUSH1 0xC0 DUP7 ADD MLOAD PUSH1 0x6 DUP1 DUP8 ADD SWAP2 SWAP1 SWAP2 SSTORE PUSH1 0xE0 DUP8 ADD MLOAD PUSH1 0x7 DUP8 ADD DUP1 SLOAD PUSH2 0x100 DUP1 DUP12 ADD MLOAD PUSH2 0x120 DUP13 ADD MLOAD PUSH2 0xFFFF NOT SWAP1 SWAP4 AND SWAP5 ISZERO ISZERO PUSH2 0xFF00 NOT AND SWAP5 SWAP1 SWAP5 OR SWAP4 ISZERO ISZERO MUL SWAP3 SWAP1 SWAP3 OR PUSH3 0xFF0000 NOT AND PUSH3 0x10000 SWAP3 ISZERO ISZERO SWAP3 SWAP1 SWAP3 MUL SWAP2 SWAP1 SWAP2 OR SWAP1 SSTORE PUSH2 0x140 DUP8 ADD MLOAD PUSH1 0x8 DUP8 ADD SSTORE PUSH2 0x160 SWAP1 SWAP7 ADD MLOAD PUSH1 0x9 SWAP1 SWAP6 ADD SWAP5 SWAP1 SWAP5 SSTORE PUSH1 0x0 DUP8 DUP2 MSTORE PUSH1 0x20 SWAP6 SWAP1 SWAP6 MSTORE SWAP2 SWAP1 SWAP4 KECCAK256 DUP1 SLOAD PUSH1 0xFF NOT AND PUSH1 0x1 OR SWAP1 SSTORE SWAP2 SLOAD SWAP1 SLOAD PUSH2 0x1AC1 SWAP3 SWAP2 SWAP1 SWAP2 AND SWAP1 PUSH2 0x1D91 JUMP JUMPDEST PUSH1 0x40 DUP1 MLOAD CALLER DUP2 MSTORE PUSH1 0x0 PUSH1 0x20 DUP3 ADD DUP2 SWAP1 MSTORE DUP2 DUP4 ADD DUP7 SWAP1 MSTORE PUSH1 0x60 DUP3 ADD MSTORE SWAP1 MLOAD DUP4 SWAP2 PUSH32 0xA693A8F68FE4DF789541DDD1B84D32CCAEA90ADDDCC88406B4BBBF6466328D3C SWAP2 SWAP1 DUP2 SWAP1 SUB PUSH1 0x80 ADD SWAP1 LOG2 POP POP PUSH2 0x1B17 PUSH1 0x1 PUSH1 0x0 SSTORE JUMP JUMPDEST POP POP POP JUMP JUMPDEST PUSH1 0x0 DUP2 DUP2 MSTORE PUSH1 0x5 PUSH1 0x20 MSTORE PUSH1 0x40 DUP2 KECCAK256 PUSH1 0x9 ADD SLOAD SWAP1 PUSH2 0x1B3B SWAP1 DUP1 DUP1 DUP1 PUSH2 0x1CD5 JUMP JUMPDEST GT PUSH2 0x1B7D JUMPI PUSH1 0x40 MLOAD PUSH3 0x461BCD PUSH1 0xE5 SHL DUP2 MSTORE PUSH1 0x20 PUSH1 0x4 DUP3 ADD MSTORE PUSH1 0x12 PUSH1 0x24 DUP3 ADD MSTORE PUSH18 0x41756374696F6E207374696C6C204C697665 PUSH1 0x70 SHL PUSH1 0x44 DUP3 ADD MSTORE PUSH1 0x64 ADD PUSH2 0x69D JUMP JUMPDEST PUSH1 0x0 DUP2 DUP2 MSTORE PUSH1 0x5 PUSH1 0x20 MSTORE PUSH1 0x40 SWAP1 KECCAK256 PUSH1 0x3 ADD SLOAD PUSH1 0x1 PUSH1 0x1 PUSH1 0xA0 SHL SUB AND CALLER EQ PUSH2 0x1BDF JUMPI PUSH1 0x40 MLOAD PUSH3 0x461BCD PUSH1 0xE5 SHL DUP2 MSTORE PUSH1 0x20 PUSH1 0x4 DUP3 ADD MSTORE PUSH1 0x16 PUSH1 0x24 DUP3 ADD MSTORE PUSH22 0x2CB7BA9030B932903737BA103A34329039B2B63632B9 PUSH1 0x51 SHL PUSH1 0x44 DUP3 ADD MSTORE PUSH1 0x64 ADD PUSH2 0x69D JUMP JUMPDEST PUSH1 0x0 DUP2 DUP2 MSTORE PUSH1 0x5 PUSH1 0x20 DUP2 SWAP1 MSTORE PUSH1 0x40 DUP3 KECCAK256 PUSH1 0x6 DUP2 ADD SLOAD PUSH1 0x3 DUP3 ADD SLOAD SWAP3 DUP3 ADD DUP1 SLOAD PUSH1 0x1 PUSH1 0x1 PUSH1 0xA0 SHL SUB NOT AND SWAP1 SSTORE PUSH1 0x7 DUP3 ADD DUP1 SLOAD PUSH2 0xFFFF NOT AND PUSH1 0x1 OR SWAP1 SSTORE PUSH1 0x8 SWAP1 SWAP2 ADD DUP4 SWAP1 SSTORE SWAP2 PUSH1 0x1 PUSH1 0x1 PUSH1 0xA0 SHL SUB SWAP1 SWAP2 AND SWAP1 PUSH2 0x1C3B SWAP1 DUP1 DUP1 DUP1 PUSH2 0x1CD5 JUMP JUMPDEST PUSH1 0x0 DUP5 DUP2 MSTORE PUSH1 0x5 PUSH1 0x20 MSTORE PUSH1 0x40 DUP2 KECCAK256 PUSH1 0x9 ADD SWAP2 SWAP1 SWAP2 SSTORE PUSH1 0x4 SLOAD PUSH1 0x64 SWAP1 PUSH2 0x1C60 SWAP1 DUP6 PUSH2 0x25DA JUMP JUMPDEST PUSH2 0x1C6A SWAP2 SWAP1 PUSH2 0x25F9 JUMP JUMPDEST PUSH1 0x0 DUP6 DUP2 MSTORE PUSH1 0x5 PUSH1 0x20 MSTORE PUSH1 0x40 SWAP1 KECCAK256 PUSH1 0x4 ADD SLOAD SWAP1 SWAP2 POP PUSH2 0x1C9B SWAP1 PUSH1 0x1 PUSH1 0x1 PUSH1 0xA0 SHL SUB AND PUSH2 0x1C96 DUP4 DUP7 PUSH2 0x261B JUMP JUMPDEST PUSH2 0x1D91 JUMP JUMPDEST PUSH2 0x1CA5 DUP3 DUP3 PUSH2 0x1D91 JUMP JUMPDEST PUSH1 0x0 DUP5 DUP2 MSTORE PUSH1 0x5 PUSH1 0x20 MSTORE PUSH1 0x40 SWAP1 KECCAK256 PUSH1 0x4 ADD DUP1 SLOAD PUSH1 0x1 PUSH1 0x1 PUSH1 0xA0 SHL SUB NOT AND CALLER OR SWAP1 SSTORE PUSH2 0x1CCF DUP5 PUSH2 0x1DF1 JUMP JUMPDEST POP POP POP POP JUMP JUMPDEST PUSH1 0x0 PUSH2 0x1CE4 DUP3 PUSH3 0x15180 PUSH2 0x25DA JUMP JUMPDEST PUSH2 0x1CF0 DUP5 PUSH2 0xE10 PUSH2 0x25DA JUMP JUMPDEST PUSH2 0x1CFB DUP7 PUSH1 0x3C PUSH2 0x25DA JUMP JUMPDEST PUSH2 0x1D06 DUP9 PUSH1 0x1 PUSH2 0x25DA JUMP JUMPDEST PUSH2 0x1D10 SWAP1 TIMESTAMP PUSH2 0x2529 JUMP JUMPDEST PUSH2 0x1D1A SWAP2 SWAP1 PUSH2 0x2529 JUMP JUMPDEST PUSH2 0x1D24 SWAP2 SWAP1 PUSH2 0x2529 JUMP JUMPDEST PUSH2 0x1D2E SWAP2 SWAP1 PUSH2 0x2529 JUMP JUMPDEST SWAP6 SWAP5 POP POP POP POP POP JUMP JUMPDEST PUSH1 0x2 PUSH1 0x0 SLOAD EQ ISZERO PUSH2 0x1D8A JUMPI PUSH1 0x40 MLOAD PUSH3 0x461BCD PUSH1 0xE5 SHL DUP2 MSTORE PUSH1 0x20 PUSH1 0x4 DUP3 ADD MSTORE PUSH1 0x1F PUSH1 0x24 DUP3 ADD MSTORE PUSH32 0x5265656E7472616E637947756172643A207265656E7472616E742063616C6C00 PUSH1 0x44 DUP3 ADD MSTORE PUSH1 0x64 ADD PUSH2 0x69D JUMP JUMPDEST PUSH1 0x2 PUSH1 0x0 SSTORE JUMP JUMPDEST PUSH1 0x0 DUP3 PUSH1 0x1 PUSH1 0x1 PUSH1 0xA0 SHL SUB AND DUP3 PUSH1 0x40 MLOAD PUSH1 0x0 PUSH1 0x40 MLOAD DUP1 DUP4 SUB DUP2 DUP6 DUP8 GAS CALL SWAP3 POP POP POP RETURNDATASIZE DUP1 PUSH1 0x0 DUP2 EQ PUSH2 0x1DDE JUMPI PUSH1 0x40 MLOAD SWAP2 POP PUSH1 0x1F NOT PUSH1 0x3F RETURNDATASIZE ADD AND DUP3 ADD PUSH1 0x40 MSTORE RETURNDATASIZE DUP3 MSTORE RETURNDATASIZE PUSH1 0x0 PUSH1 0x20 DUP5 ADD RETURNDATACOPY PUSH2 0x1DE3 JUMP JUMPDEST PUSH1 0x60 SWAP2 POP JUMPDEST POP POP SWAP1 POP DUP1 PUSH2 0x1B17 JUMPI PUSH1 0x0 DUP1 REVERT JUMPDEST PUSH1 0x0 JUMPDEST PUSH1 0x0 DUP3 DUP2 MSTORE PUSH1 0x7 PUSH1 0x20 MSTORE PUSH1 0x40 SWAP1 KECCAK256 SLOAD DUP2 LT ISZERO PUSH2 0x1FBA JUMPI PUSH1 0x0 DUP3 DUP2 MSTORE PUSH1 0x7 PUSH1 0x20 MSTORE PUSH1 0x40 SWAP1 KECCAK256 DUP1 SLOAD CALLER SWAP2 SWAP1 DUP4 SWAP1 DUP2 LT PUSH2 0x1E2D JUMPI PUSH2 0x1E2D PUSH2 0x2597 JUMP JUMPDEST PUSH1 0x0 SWAP2 DUP3 MSTORE PUSH1 0x20 SWAP1 SWAP2 KECCAK256 PUSH1 0x4 SWAP1 SWAP2 MUL ADD SLOAD PUSH1 0x1 PUSH1 0x1 PUSH1 0xA0 SHL SUB AND EQ PUSH2 0x1F19 JUMPI PUSH1 0x0 DUP3 DUP2 MSTORE PUSH1 0x7 PUSH1 0x20 MSTORE PUSH1 0x40 SWAP1 KECCAK256 DUP1 SLOAD PUSH1 0x1 SWAP2 SWAP1 DUP4 SWAP1 DUP2 LT PUSH2 0x1E70 JUMPI PUSH2 0x1E70 PUSH2 0x2597 JUMP JUMPDEST SWAP1 PUSH1 0x0 MSTORE PUSH1 0x20 PUSH1 0x0 KECCAK256 SWAP1 PUSH1 0x4 MUL ADD PUSH1 0x3 ADD PUSH1 0x0 PUSH2 0x100 EXP DUP2 SLOAD DUP2 PUSH1 0xFF MUL NOT AND SWAP1 DUP4 ISZERO ISZERO MUL OR SWAP1 SSTORE POP PUSH2 0x1F14 PUSH1 0x7 PUSH1 0x0 DUP5 DUP2 MSTORE PUSH1 0x20 ADD SWAP1 DUP2 MSTORE PUSH1 0x20 ADD PUSH1 0x0 KECCAK256 DUP3 DUP2 SLOAD DUP2 LT PUSH2 0x1EBF JUMPI PUSH2 0x1EBF PUSH2 0x2597 JUMP JUMPDEST PUSH1 0x0 SWAP2 DUP3 MSTORE PUSH1 0x20 DUP1 DUP4 KECCAK256 PUSH1 0x4 SWAP1 SWAP3 MUL SWAP1 SWAP2 ADD SLOAD DUP6 DUP4 MSTORE PUSH1 0x7 SWAP1 SWAP2 MSTORE PUSH1 0x40 SWAP1 SWAP2 KECCAK256 DUP1 SLOAD PUSH1 0x1 PUSH1 0x1 PUSH1 0xA0 SHL SUB SWAP1 SWAP3 AND SWAP2 DUP5 SWAP1 DUP2 LT PUSH2 0x1EFD JUMPI PUSH2 0x1EFD PUSH2 0x2597 JUMP JUMPDEST SWAP1 PUSH1 0x0 MSTORE PUSH1 0x20 PUSH1 0x0 KECCAK256 SWAP1 PUSH1 0x4 MUL ADD PUSH1 0x1 ADD SLOAD PUSH2 0x1D91 JUMP JUMPDEST PUSH2 0x1F66 JUMP JUMPDEST PUSH1 0x0 DUP3 DUP2 MSTORE PUSH1 0x7 PUSH1 0x20 MSTORE PUSH1 0x40 SWAP1 KECCAK256 DUP1 SLOAD PUSH1 0x1 SWAP2 SWAP1 DUP4 SWAP1 DUP2 LT PUSH2 0x1F3D JUMPI PUSH2 0x1F3D PUSH2 0x2597 JUMP JUMPDEST SWAP1 PUSH1 0x0 MSTORE PUSH1 0x20 PUSH1 0x0 KECCAK256 SWAP1 PUSH1 0x4 MUL ADD PUSH1 0x3 ADD PUSH1 0x1 PUSH2 0x100 EXP DUP2 SLOAD DUP2 PUSH1 0xFF MUL NOT AND SWAP1 DUP4 ISZERO ISZERO MUL OR SWAP1 SSTORE POP JUMPDEST PUSH2 0x1F74 PUSH1 0x0 DUP1 PUSH1 0x0 DUP1 PUSH2 0x1CD5 JUMP JUMPDEST PUSH1 0x0 DUP4 DUP2 MSTORE PUSH1 0x7 PUSH1 0x20 MSTORE PUSH1 0x40 SWAP1 KECCAK256 DUP1 SLOAD DUP4 SWAP1 DUP2 LT PUSH2 0x1F94 JUMPI PUSH2 0x1F94 PUSH2 0x2597 JUMP JUMPDEST PUSH1 0x0 SWAP2 DUP3 MSTORE PUSH1 0x20 SWAP1 SWAP2 KECCAK256 PUSH1 0x2 PUSH1 0x4 SWAP1 SWAP3 MUL ADD ADD SSTORE DUP1 PUSH2 0x1FB2 DUP2 PUSH2 0x2541 JUMP JUMPDEST SWAP2 POP POP PUSH2 0x1DF4 JUMP JUMPDEST POP PUSH1 0x0 DUP2 DUP2 MSTORE PUSH1 0x7 PUSH1 0x20 MSTORE PUSH1 0x40 DUP2 KECCAK256 PUSH2 0x1FD2 SWAP2 PUSH2 0x20DB JUMP JUMPDEST POP JUMP JUMPDEST PUSH1 0x40 MLOAD DUP1 PUSH2 0x180 ADD PUSH1 0x40 MSTORE DUP1 PUSH1 0x60 DUP2 MSTORE PUSH1 0x20 ADD PUSH1 0x60 DUP2 MSTORE PUSH1 0x20 ADD PUSH1 0x0 DUP2 MSTORE PUSH1 0x20 ADD PUSH1 0x0 PUSH1 0x1 PUSH1 0x1 PUSH1 0xA0 SHL SUB AND DUP2 MSTORE PUSH1 0x20 ADD PUSH1 0x0 PUSH1 0x1 PUSH1 0x1 PUSH1 0xA0 SHL SUB AND DUP2 MSTORE PUSH1 0x20 ADD PUSH1 0x0 PUSH1 0x1 PUSH1 0x1 PUSH1 0xA0 SHL SUB AND DUP2 MSTORE PUSH1 0x20 ADD PUSH1 0x0 DUP2 MSTORE PUSH1 0x20 ADD PUSH1 0x0 ISZERO ISZERO DUP2 MSTORE PUSH1 0x20 ADD PUSH1 0x0 ISZERO ISZERO DUP2 MSTORE PUSH1 0x20 ADD PUSH1 0x0 ISZERO ISZERO DUP2 MSTORE PUSH1 0x20 ADD PUSH1 0x0 DUP2 MSTORE PUSH1 0x20 ADD PUSH1 0x0 DUP2 MSTORE POP SWAP1 JUMP JUMPDEST DUP3 DUP1 SLOAD PUSH2 0x2063 SWAP1 PUSH2 0x255C JUMP JUMPDEST SWAP1 PUSH1 0x0 MSTORE PUSH1 0x20 PUSH1 0x0 KECCAK256 SWAP1 PUSH1 0x1F ADD PUSH1 0x20 SWAP1 DIV DUP2 ADD SWAP3 DUP3 PUSH2 0x2085 JUMPI PUSH1 0x0 DUP6 SSTORE PUSH2 0x20CB JUMP JUMPDEST DUP3 PUSH1 0x1F LT PUSH2 0x209E JUMPI DUP1 MLOAD PUSH1 0xFF NOT AND DUP4 DUP1 ADD OR DUP6 SSTORE PUSH2 0x20CB JUMP JUMPDEST DUP3 DUP1 ADD PUSH1 0x1 ADD DUP6 SSTORE DUP3 ISZERO PUSH2 0x20CB JUMPI SWAP2 DUP3 ADD JUMPDEST DUP3 DUP2 GT ISZERO PUSH2 0x20CB JUMPI DUP3 MLOAD DUP3 SSTORE SWAP2 PUSH1 0x20 ADD SWAP2 SWAP1 PUSH1 0x1 ADD SWAP1 PUSH2 0x20B0 JUMP JUMPDEST POP PUSH2 0x20D7 SWAP3 SWAP2 POP PUSH2 0x20FC JUMP JUMPDEST POP SWAP1 JUMP JUMPDEST POP DUP1 SLOAD PUSH1 0x0 DUP3 SSTORE PUSH1 0x4 MUL SWAP1 PUSH1 0x0 MSTORE PUSH1 0x20 PUSH1 0x0 KECCAK256 SWAP1 DUP2 ADD SWAP1 PUSH2 0x1FD2 SWAP2 SWAP1 PUSH2 0x2111 JUMP JUMPDEST JUMPDEST DUP1 DUP3 GT ISZERO PUSH2 0x20D7 JUMPI PUSH1 0x0 DUP2 SSTORE PUSH1 0x1 ADD PUSH2 0x20FD JUMP JUMPDEST JUMPDEST DUP1 DUP3 GT ISZERO PUSH2 0x20D7 JUMPI DUP1 SLOAD PUSH1 0x1 PUSH1 0x1 PUSH1 0xA0 SHL SUB NOT AND DUP2 SSTORE PUSH1 0x0 PUSH1 0x1 DUP3 ADD DUP2 SWAP1 SSTORE PUSH1 0x2 DUP3 ADD SSTORE PUSH1 0x3 DUP2 ADD DUP1 SLOAD PUSH2 0xFFFF NOT AND SWAP1 SSTORE PUSH1 0x4 ADD PUSH2 0x2112 JUMP JUMPDEST PUSH1 0x0 DUP2 MLOAD DUP1 DUP5 MSTORE PUSH1 0x0 JUMPDEST DUP2 DUP2 LT ISZERO PUSH2 0x2171 JUMPI PUSH1 0x20 DUP2 DUP6 ADD DUP2 ADD MLOAD DUP7 DUP4 ADD DUP3 ADD MSTORE ADD PUSH2 0x2155 JUMP JUMPDEST DUP2 DUP2 GT ISZERO PUSH2 0x2183 JUMPI PUSH1 0x0 PUSH1 0x20 DUP4 DUP8 ADD ADD MSTORE JUMPDEST POP PUSH1 0x1F ADD PUSH1 0x1F NOT AND SWAP3 SWAP1 SWAP3 ADD PUSH1 0x20 ADD SWAP3 SWAP2 POP POP JUMP JUMPDEST PUSH1 0x0 PUSH2 0x180 DUP3 MLOAD DUP2 DUP6 MSTORE PUSH2 0x21AE DUP3 DUP7 ADD DUP3 PUSH2 0x214B JUMP JUMPDEST SWAP2 POP POP PUSH1 0x20 DUP4 ADD MLOAD DUP5 DUP3 SUB PUSH1 0x20 DUP7 ADD MSTORE PUSH2 0x21C8 DUP3 DUP3 PUSH2 0x214B JUMP JUMPDEST SWAP2 POP POP PUSH1 0x40 DUP4 ADD MLOAD PUSH1 0x40 DUP6 ADD MSTORE PUSH1 0x60 DUP4 ADD MLOAD PUSH2 0x21EF PUSH1 0x60 DUP7 ADD DUP3 PUSH1 0x1 PUSH1 0x1 PUSH1 0xA0 SHL SUB AND SWAP1 MSTORE JUMP JUMPDEST POP PUSH1 0x80 DUP4 ADD MLOAD PUSH2 0x220A PUSH1 0x80 DUP7 ADD DUP3 PUSH1 0x1 PUSH1 0x1 PUSH1 0xA0 SHL SUB AND SWAP1 MSTORE JUMP JUMPDEST POP PUSH1 0xA0 DUP4 ADD MLOAD PUSH2 0x2225 PUSH1 0xA0 DUP7 ADD DUP3 PUSH1 0x1 PUSH1 0x1 PUSH1 0xA0 SHL SUB AND SWAP1 MSTORE JUMP JUMPDEST POP PUSH1 0xC0 DUP4 ADD MLOAD PUSH1 0xC0 DUP6 ADD MSTORE PUSH1 0xE0 DUP4 ADD MLOAD PUSH2 0x2243 PUSH1 0xE0 DUP7 ADD DUP3 ISZERO ISZERO SWAP1 MSTORE JUMP JUMPDEST POP PUSH2 0x100 DUP4 DUP2 ADD MLOAD ISZERO ISZERO SWAP1 DUP6 ADD MSTORE PUSH2 0x120 DUP1 DUP5 ADD MLOAD ISZERO ISZERO SWAP1 DUP6 ADD MSTORE PUSH2 0x140 DUP1 DUP5 ADD MLOAD SWAP1 DUP6 ADD MSTORE PUSH2 0x160 SWAP3 DUP4 ADD MLOAD SWAP3 SWAP1 SWAP4 ADD SWAP2 SWAP1 SWAP2 MSTORE POP SWAP1 JUMP JUMPDEST PUSH1 0x0 PUSH1 0x20 DUP1 DUP4 ADD DUP2 DUP5 MSTORE DUP1 DUP6 MLOAD DUP1 DUP4 MSTORE PUSH1 0x40 DUP7 ADD SWAP2 POP PUSH1 0x40 DUP2 PUSH1 0x5 SHL DUP8 ADD ADD SWAP3 POP DUP4 DUP8 ADD PUSH1 0x0 JUMPDEST DUP3 DUP2 LT ISZERO PUSH2 0x22D1 JUMPI PUSH1 0x3F NOT DUP9 DUP7 SUB ADD DUP5 MSTORE PUSH2 0x22BF DUP6 DUP4 MLOAD PUSH2 0x2198 JUMP JUMPDEST SWAP5 POP SWAP3 DUP6 ADD SWAP3 SWAP1 DUP6 ADD SWAP1 PUSH1 0x1 ADD PUSH2 0x22A3 JUMP JUMPDEST POP SWAP3 SWAP8 SWAP7 POP POP POP POP POP POP POP JUMP JUMPDEST PUSH1 0x0 PUSH1 0x20 DUP3 DUP5 SUB SLT ISZERO PUSH2 0x22F0 JUMPI PUSH1 0x0 DUP1 REVERT JUMPDEST POP CALLDATALOAD SWAP2 SWAP1 POP JUMP JUMPDEST PUSH1 0x20 DUP1 DUP3 MSTORE DUP3 MLOAD DUP3 DUP3 ADD DUP2 SWAP1 MSTORE PUSH1 0x0 SWAP2 SWAP1 PUSH1 0x40 SWAP1 DUP2 DUP6 ADD SWAP1 DUP7 DUP5 ADD DUP6 JUMPDEST DUP3 DUP2 LT ISZERO PUSH2 0x2365 JUMPI DUP2 MLOAD DUP1 MLOAD PUSH1 0x1 PUSH1 0x1 PUSH1 0xA0 SHL SUB AND DUP6 MSTORE DUP7 DUP2 ADD MLOAD DUP8 DUP7 ADD MSTORE DUP6 DUP2 ADD MLOAD DUP7 DUP7 ADD MSTORE PUSH1 0x60 DUP1 DUP3 ADD MLOAD ISZERO ISZERO SWAP1 DUP7 ADD MSTORE PUSH1 0x80 SWAP1 DUP2 ADD MLOAD ISZERO ISZERO SWAP1 DUP6 ADD MSTORE PUSH1 0xA0 SWAP1 SWAP4 ADD SWAP3 SWAP1 DUP6 ADD SWAP1 PUSH1 0x1 ADD PUSH2 0x2314 JUMP JUMPDEST POP SWAP2 SWAP8 SWAP7 POP POP POP POP POP POP POP JUMP JUMPDEST PUSH1 0x20 DUP2 MSTORE PUSH1 0x0 PUSH2 0x2385 PUSH1 0x20 DUP4 ADD DUP5 PUSH2 0x2198 JUMP JUMPDEST SWAP4 SWAP3 POP POP POP JUMP JUMPDEST PUSH1 0x0 DUP1 PUSH1 0x0 DUP1 PUSH1 0x0 DUP1 PUSH1 0xC0 DUP8 DUP10 SUB SLT ISZERO PUSH2 0x23A5 JUMPI PUSH1 0x0 DUP1 REVERT JUMPDEST DUP7 CALLDATALOAD SWAP6 POP PUSH1 0x20 DUP8 ADD CALLDATALOAD DUP1 ISZERO ISZERO DUP2 EQ PUSH2 0x23BC JUMPI PUSH1 0x0 DUP1 REVERT JUMPDEST SWAP6 SWAP9 SWAP6 SWAP8 POP POP POP POP PUSH1 0x40 DUP5 ADD CALLDATALOAD SWAP4 PUSH1 0x60 DUP2 ADD CALLDATALOAD SWAP4 PUSH1 0x80 DUP3 ADD CALLDATALOAD SWAP4 POP PUSH1 0xA0 SWAP1 SWAP2 ADD CALLDATALOAD SWAP2 POP JUMP JUMPDEST PUSH1 0x0 DUP1 PUSH1 0x40 DUP4 DUP6 SUB SLT ISZERO PUSH2 0x23F4 JUMPI PUSH1 0x0 DUP1 REVERT JUMPDEST POP POP DUP1 CALLDATALOAD SWAP3 PUSH1 0x20 SWAP1 SWAP2 ADD CALLDATALOAD SWAP2 POP JUMP JUMPDEST PUSH4 0x4E487B71 PUSH1 0xE0 SHL PUSH1 0x0 MSTORE PUSH1 0x41 PUSH1 0x4 MSTORE PUSH1 0x24 PUSH1 0x0 REVERT JUMPDEST PUSH1 0x0 DUP3 PUSH1 0x1F DUP4 ADD SLT PUSH2 0x242A JUMPI PUSH1 0x0 DUP1 REVERT JUMPDEST DUP2 CALLDATALOAD PUSH8 0xFFFFFFFFFFFFFFFF DUP1 DUP3 GT ISZERO PUSH2 0x2445 JUMPI PUSH2 0x2445 PUSH2 0x2403 JUMP JUMPDEST PUSH1 0x40 MLOAD PUSH1 0x1F DUP4 ADD PUSH1 0x1F NOT SWAP1 DUP2 AND PUSH1 0x3F ADD AND DUP2 ADD SWAP1 DUP3 DUP3 GT DUP2 DUP4 LT OR ISZERO PUSH2 0x246D JUMPI PUSH2 0x246D PUSH2 0x2403 JUMP JUMPDEST DUP2 PUSH1 0x40 MSTORE DUP4 DUP2 MSTORE DUP7 PUSH1 0x20 DUP6 DUP9 ADD ADD GT ISZERO PUSH2 0x2486 JUMPI PUSH1 0x0 DUP1 REVERT JUMPDEST DUP4 PUSH1 0x20 DUP8 ADD PUSH1 0x20 DUP4 ADD CALLDATACOPY PUSH1 0x0 PUSH1 0x20 DUP6 DUP4 ADD ADD MSTORE DUP1 SWAP5 POP POP POP POP POP SWAP3 SWAP2 POP POP JUMP JUMPDEST PUSH1 0x0 DUP1 PUSH1 0x0 PUSH1 0x60 DUP5 DUP7 SUB SLT ISZERO PUSH2 0x24BB JUMPI PUSH1 0x0 DUP1 REVERT JUMPDEST DUP4 CALLDATALOAD PUSH8 0xFFFFFFFFFFFFFFFF DUP1 DUP3 GT ISZERO PUSH2 0x24D3 JUMPI PUSH1 0x0 DUP1 REVERT JUMPDEST PUSH2 0x24DF DUP8 DUP4 DUP9 ADD PUSH2 0x2419 JUMP JUMPDEST SWAP5 POP PUSH1 0x20 DUP7 ADD CALLDATALOAD SWAP2 POP DUP1 DUP3 GT ISZERO PUSH2 0x24F5 JUMPI PUSH1 0x0 DUP1 REVERT JUMPDEST POP PUSH2 0x2502 DUP7 DUP3 DUP8 ADD PUSH2 0x2419 JUMP JUMPDEST SWAP3 POP POP PUSH1 0x40 DUP5 ADD CALLDATALOAD SWAP1 POP SWAP3 POP SWAP3 POP SWAP3 JUMP JUMPDEST PUSH4 0x4E487B71 PUSH1 0xE0 SHL PUSH1 0x0 MSTORE PUSH1 0x11 PUSH1 0x4 MSTORE PUSH1 0x24 PUSH1 0x0 REVERT JUMPDEST PUSH1 0x0 DUP3 NOT DUP3 GT ISZERO PUSH2 0x253C JUMPI PUSH2 0x253C PUSH2 0x2513 JUMP JUMPDEST POP ADD SWAP1 JUMP JUMPDEST PUSH1 0x0 PUSH1 0x0 NOT DUP3 EQ ISZERO PUSH2 0x2555 JUMPI PUSH2 0x2555 PUSH2 0x2513 JUMP JUMPDEST POP PUSH1 0x1 ADD SWAP1 JUMP JUMPDEST PUSH1 0x1 DUP2 DUP2 SHR SWAP1 DUP3 AND DUP1 PUSH2 0x2570 JUMPI PUSH1 0x7F DUP3 AND SWAP2 POP JUMPDEST PUSH1 0x20 DUP3 LT DUP2 EQ ISZERO PUSH2 0x2591 JUMPI PUSH4 0x4E487B71 PUSH1 0xE0 SHL PUSH1 0x0 MSTORE PUSH1 0x22 PUSH1 0x4 MSTORE PUSH1 0x24 PUSH1 0x0 REVERT JUMPDEST POP SWAP2 SWAP1 POP JUMP JUMPDEST PUSH4 0x4E487B71 PUSH1 0xE0 SHL PUSH1 0x0 MSTORE PUSH1 0x32 PUSH1 0x4 MSTORE PUSH1 0x24 PUSH1 0x0 REVERT JUMPDEST PUSH1 0x20 DUP1 DUP3 MSTORE PUSH1 0x13 SWAP1 DUP3 ADD MSTORE PUSH19 0x556E617574686F72697A656420656E74697479 PUSH1 0x68 SHL PUSH1 0x40 DUP3 ADD MSTORE PUSH1 0x60 ADD SWAP1 JUMP JUMPDEST PUSH1 0x0 DUP2 PUSH1 0x0 NOT DIV DUP4 GT DUP3 ISZERO ISZERO AND ISZERO PUSH2 0x25F4 JUMPI PUSH2 0x25F4 PUSH2 0x2513 JUMP JUMPDEST POP MUL SWAP1 JUMP JUMPDEST PUSH1 0x0 DUP3 PUSH2 0x2616 JUMPI PUSH4 0x4E487B71 PUSH1 0xE0 SHL PUSH1 0x0 MSTORE PUSH1 0x12 PUSH1 0x4 MSTORE PUSH1 0x24 PUSH1 0x0 REVERT JUMPDEST POP DIV SWAP1 JUMP JUMPDEST PUSH1 0x0 DUP3 DUP3 LT ISZERO PUSH2 0x262D JUMPI PUSH2 0x262D PUSH2 0x2513 JUMP JUMPDEST POP SUB SWAP1 JUMP INVALID LOG2 PUSH5 0x6970667358 0x22 SLT KECCAK256 SHL CALLDATACOPY CREATE2 GT ADDRESS SELFDESTRUCT DUP11 DUP3 0x5C 0xAC 0x21 0xB6 PUSH15 0xE5359A414B43F6CE40CFCA06763564 0xEA 0xD ORIGIN 0xC2 PUSH5 0x736F6C6343 STOP ADDMOD SIGNEXTEND STOP CALLER "},"methodIdentifiers":{"changePrice(uint256,uint256)":"b3de019c","createAuction(string,string,uint256)":"ddf20706","finalizeAuction(uint256)":"e8083863","getAllAuctions()":"cbd2bdfd","getAuction(uint256)":"78bd7935","getBidders(uint256)":"4fa7b507","getListingPrice()":"12e85585","getLiveAuctions()":"db0bd5c9","getMyAuctions()":"bf65a333","getSoldAuction()":"1d8df68f","getUnsoldAuction()":"9e78efd6","offerAuction(uint256,bool,uint256,uint256,uint256,uint256)":"a923f18c","placeBid(uint256)":"9979ef45","setListingPrice(uint256)":"7c726b69"}}}}}